S018000041746D65676133325F447269766572732E737265631A
S11300000C942A000C943E000C9465000C948C0013
S11300100C943C000C943C000C943C000C94B601F1
S11300200C94E0010C948C010C9434020C945E0248
S11300300C940A020C9488020C94AF020C94D6021D
S11300400C943C000C943C000C943C000C94DB009D
S11300500C943C0011241FBECFE5D8E0DEBFCDBF19
S113006020E0A0E6B0E001C01D92A437B207E1F79A
S11300700E9450030C9480050C9400001F920F9270
S11300800FB60F9211242F933F934F935F936F9367
S11300907F938F939F93AF93BF93EF93FF93E091DD
S11300A06800F09169000995FF91EF91BF91AF91BC
S11300B09F918F917F916F915F914F913F912F917C
S11300C00F900FBE0F901F9018951F920F920FB6AE
S11300D00F9211242F933F934F935F936F937F93CA
S11300E08F939F93AF93BF93EF93FF93E0916A0035
S11300F0F0916B000995FF91EF91BF91AF919F91A2
S11301008F917F916F915F914F913F912F910F90BC
S11301100FBE0F901F9018951F920F920FB60F925B
S113012011242F933F934F935F936F937F938F93F8
S11301309F93AF93BF93EF93FF93E0916C00F09183
S11301406D000995FF91EF91BF91AF919F918F91B0
S11301507F916F915F914F913F912F910F900FBEBF
S11301600F901F901895FC01DB0111968C9111974B
S1130170813059F48C9180959181892381838C916C
S113018080959281892382830895823051F48C91E1
S113019080959181892381838C919281892B82839B
S11301A008958C919181892B81838C918095928182
S11301B08923828308951F920F920FB60F92112400
S11301C02F933F934F935F936F937F938F939F935B
S11301D0AF93BF93EF93FF93E0916000F0916100C0
S11301E00480F581E02D0995FF91EF91BF91AF91C6
S11301F09F918F917F916F915F914F913F912F913B
S11302000F900FBE0F901F901895EF92FF920F93CF
S11302101F93CF93DF9300D0CDB7DEB78C019093BB
S1130220630080936200FC018081F82FF260FF2E4E
S1130230882359F080E2898383E08A83BE016F5F5B
S11302407F4F80E390E00E94B300F8018181F82F92
S1130250F861EF2E882359F080E1898383E08A8353
S1130260BE016F5F7F4F80E390E00E94B300F8010E
S113027082818E299381913039F499B7946099BF22
S11302809FB790689FBF06C099B79B7F99BF9FB7E0
S11302909F779FBFF8019481913039F499B79061A9
S11302A099BF9FB790689FBF06C099B79F7E99BFBB
S11302B09FB79F779FBFF8019481913039F499B724
S11302C0906199BF9FB790689FBF06C099B7977F09
S11302D099BF9FB79F779FBFF801938597BD92857C
S11302E096BD97819BBD96819ABD918599BD908558
S11302F098BDFFBC8EBD0F900F90DF91CF911F91E1
S11303000F91FF90EF900895611103C09BBD8ABDCA
S1130310089599BD88BD08951F920F920FB60F924C
S113032011242F933F934F935F936F937F938F93F6
S11303309F93AF93BF93EF93FF93E0916200F0918B
S113034063000484F585E02D0995FF91EF91BF9139
S1130350AF919F918F917F916F915F914F913F9159
S11303602F910F900FBE0F901F9018951F920F9210
S11303700FB60F9211242F933F934F935F936F9374
S11303807F938F939F93AF93BF93EF93FF93E091EA
S11303906200F09163000684F785E02D0995FF91D2
S11303A0EF91BF91AF919F918F917F916F915F91E9
S11303B04F913F912F910F900FBE0F901F90189562
S11303C01F920F920FB60F9211242F933F934F93C6
S11303D05F936F937F938F939F93AF93BF93EF93A9
S11303E0FF93E0916200F09163000088F189E02DB1
S11303F00995FF91EF91BF91AF919F918F917F915B
S11304006F915F914F913F912F910F900FBE0F907D
S11304101F9018951F920F920FB60F9211242F93CD
S11304203F934F935F936F937F938F939F93AF9378
S1130430BF93EF93FF93E0916400F0916500078010
S1130440F085E02D0995FF91EF91BF91AF919F91B8
S11304508F917F916F915F914F913F912F910F9069
S11304600FBE0F901F9018951F920F920FB60F9208
S113047011242F933F934F935F936F937F938F93A5
S11304809F93AF93BF93EF93FF93E0916600F09136
S113049067000084F185E02D0995FF91EF91BF91EC
S11304A0AF919F918F917F916F915F914F913F9108
S11304B02F910F900FBE0F901F9018951F920F92BF
S11304C00FB60F9211242F933F934F935F936F9323
S11304D07F938F939F93AF93BF93EF93FF93E09199
S11304E06600F09167000680F781E02D0995FF9181
S11304F0EF91BF91AF919F918F917F916F915F9198
S11305004F913F912F910F900FBE0F901F90189510
S11305101F920F920FB60F9211242F933F934F9374
S11305205F936F937F938F939F93AF93BF93EF9357
S1130530FF93E0917200F09173000995FF91EF91A0
S1130540BF91AF919F918F917F916F915F914F91E7
S11305503F912F910F900FBE0F901F9018951F92EF
S11305600F920FB60F9211242F933F934F935F93E3
S11305706F937F938F939F93AF93BF93EF93FF9367
S1130580E0917000F09171000995FF91EF91BF9196
S1130590AF919F918F917F916F915F914F913F9117
S11305A02F910F900FBE0F901F9018951F920F92CE
S11305B00FB60F9211242F933F934F935F936F9332
S11305C07F938F939F93AF93BF93EF93FF93E091A8
S11305D06E00F0916F000995FF91EF91BF91AF917B
S11305E09F918F917F916F915F914F913F912F9147
S11305F00F900FBE0F901F901895CF93DF93CDB738
S1130600DEB762970FB6F894DEBF0FBECDBF1A8671
S1130610198618861F821A8280E8898383E08B8377
S113062083EC99E09C878B871D821E821C82188A2A
S11306301F861A8A198A1E861D86CE0101960E947B
S1130640050162960FB6F894DEBF0FBECDBFDF91F1
S1130650CF910895682F70E080E090E00E948704B5
S11306602CED39E64AEB56E30E9413052FE632E1FE
S113067043E85AE30E9478032DEB37E346E057E35F
S11306800E94E40320E030E040E05FE30E9477034F
S11306900E945604DC01CB0160E00E9484010895AD
S11306A00E94FD0280E00E942A032FEF8EE994E26B
S11306B0215080409040E1F700C000008AE50E948C
S11306C02A032FEF8EE994E2215080409040E1F715
S11306D000C0000084EB0E942A032FEF8EE994E20D
S11306E0215080409040E1F700C00000DBCF50581B
S11306F0BB27AA270E948F030C94D9040E94CB0421
S113070038F00E94D20420F039F49F3F19F426F403
S11307100C94C8040EF4E095E7FB0C94C204E92F92
S11307200E94EA0458F3BA1762077307840795070F
S113073020F079F4A6F50C940C050EF4E0950B2E3C
S1130740BA2FA02D0B01B90190010C01CA01A0011F
S11307501124FF27591B99F0593F50F4503E68F17A
S11307601A16F040A22F232F342F4427585FF3CFBB
S1130770469537952795A795F0405395C9F77EF48C
S11307801F16BA0B620B730B840BBAF09150A1F0D5
S1130790FF0FBB1F661F771F881FC2F70EC0BA0F5B
S11307A0621F731F841F48F4879577956795B795E3
S11307B0F7959E3F08F0B0CF9395880F08F09927DE
S11307C0EE0F9795879508950E94F8030C94D90429
S11307D00E94D20458F00E94CB0440F029F45F3FF9
S11307E029F00C94C20451110C940D050C94C80406
S11307F00E94EA0468F39923B1F3552391F3951BFE
S1130800550BBB27AA2762177307840738F09F5F2D
S11308105F4F220F331F441FAA1FA9F335D00E2E9A
S11308203AF0E0E832D091505040E695001CCAF707
S11308302BD0FE2F29D0660F771F881FBB1F2617CA
S113084037074807AB07B0E809F0BB0B802DBF01A1
S1130850FF2793585F4F3AF09E3F510578F00C9470
S1130860C2040C940D055F3FE4F3983ED4F38695DF
S113087077956795B795F7959F5FC9F7880F911D91
S11308809695879597F90895E1E0660F771F881F7D
S1130890BB1F621773078407BA0720F0621B730B30
S11308A0840BBA0BEE1F88F7E09508950E94F204BA
S11308B088F09F5798F0B92F9927B751B0F0E1F01D
S11308C0660F771F881F991F1AF0BA95C9F714C0CD
S11308D0B13091F00E940C05B1E008950C940C0520
S11308E0672F782F8827B85F39F0B93FCCF3869506
S11308F077956795B395D9F73EF490958095709563
S113090061957F4F8F4F9F4F0895E89409C097FBDF
S11309103EF490958095709561957F4F8F4F9F4FD2
S11309209923A9F0F92F96E9BB279395F695879516
S113093077956795B795F111F8CFFAF4BB0F11F4D9
S113094060FF1BC06F5F7F4F8F4F9F4F16C0882380
S113095011F096E911C0772321F09EE8872F762FB6
S113096005C0662371F096E8862F70E060E02AF0F7
S11309709A95660F771F881FDAF7880F96958795E3
S113098097F9089597F99F6780E870E060E008950B
S11309909FEF80EC089500240A9416161706180693
S11309A00906089500240A9412161306140605066F
S11309B00895092E0394000C11F4882352F0BB0F00
S11309C040F4BF2B11F460FF04C06F5F7F4F8F4F63
S11309D09F4F089557FD9058440F551F59F05F3F9E
S11309E071F04795880F97FB991F61F09F3F79F04D
S11309F087950895121613061406551FF2CF4695CF
S1130A00F1DF08C0161617061806991FF1CF869550
S1130A107105610508940895E894BB276627772734
S1130A20CB0197F908950E9426050C94D9040E94DD
S1130A30CB0438F00E94D20420F0952311F00C94DA
S1130A40C2040C94C80411240C940D050E94EA04F9
S1130A5070F3959FC1F3950F50E0551F629FF0010D
S1130A60729FBB27F00DB11D639FAA27F00DB11D26
S1130A70AA1F649F6627B00DA11D661F829F2227AF
S1130A80B00DA11D621F739FB00DA11D621F839F36
S1130A90A00D611D221F749F3327A00D611D231F0C
S1130AA0849F600D211D822F762F6A2F11249F575A
S1130AB050409AF0F1F088234AF0EE0FFF1FBB1F5D
S1130AC0661F771F881F91505040A9F79E3F51051C
S1130AD080F00C94C2040C940D055F3FE4F3983E3F
S1130AE0D4F3869577956795B795F795E7959F5FC6
S1130AF0C1F7FE2B880F911D9695879597F9089558
S1070B00F894FFCF93
S9030000FC
