:100000000C942A000C9449000C9470000C949700F6
:100010000C9447000C9447000C9447000C94AE01DC
:100020000C94D8010C941C070C942C020C945602CE
:100030000C9402020C942E040C9455040C947C0431
:100040000C9447000C9447000C9447000C94FD005E
:100050000C94470011241FBECFE5D8E0DEBFCDBF12
:1000600010E0A0E6B0E0E4EFF5E102C005900D92EB
:10007000A838B107D9F720E0A8E8B0E001C01D9288
:10008000AF3AB207E1F70E947C080C94F80A0C948E
:1000900000001F920F920FB60F9211242F933F93DF
:1000A0004F935F936F937F938F939F93AF93BF9380
:1000B000EF93FF93E091A100F091A2000995FF91C9
:1000C000EF91BF91AF919F918F917F916F915F91D0
:1000D0004F913F912F910F900FBE0F901F90189549
:1000E0001F920F920FB60F9211242F933F934F93AD
:1000F0005F936F937F938F939F93AF93BF93EF9390
:10010000FF93E091A300F091A4000995FF91EF9176
:10011000BF91AF919F918F917F916F915F914F911F
:100120003F912F910F900FBE0F901F9018951F9227
:100130000F920FB60F9211242F933F934F935F931B
:100140006F937F938F939F93AF93BF93EF93FF939F
:10015000E091A500F091A6000995FF91EF91BF9164
:10016000AF919F918F917F916F915F914F913F914F
:100170002F910F900FBE0F901F901895FC01DB017F
:1001800011968C911197813059F48C9180959181C1
:10019000892381838C91809592818923828308951C
:1001A000823051F48C9180959181892381838C9147
:1001B0009281892B828308958C919181892B8183EF
:1001C0008C9180959281892382830895413029F40E
:1001D000FC012281622B62830895411105C0609564
:1001E000FC012281622362830895FC0162830895E9
:1001F000FC0122816227628308951F920F920FB63D
:100200000F9211242F933F934F935F936F937F939C
:100210008F939F93AF93BF93EF93FF93E0918800E9
:10022000F09189000480F581E02D0995FF91EF910F
:10023000BF91AF919F918F917F916F915F914F91FE
:100240003F912F910F900FBE0F901F901895FF9226
:100250000F931F93CF93DF9300D0CDB7DEB78C0100
:1002600090938B0080938A00FC018081F82FF260CC
:10027000FF2E882359F080E2898383E08A83BE01C0
:100280006F5F7F4F80E390E00E94BE00F8018181A4
:10029000F82A882359F080E1898383E08A83BE01AC
:1002A0006F5F7F4F80E390E00E94BE00F801828183
:1002B00088619381913039F499B7946099BF9FB761
:1002C00090689FBF06C099B79B7F99BF9FB79F77E4
:1002D0009FBFF8019481913039F499B7906199BF2B
:1002E0009FB790689FBF06C099B79F7E99BF9FB781
:1002F0009F779FBFF8019481913039F499B790614D
:1003000099BF9FB790689FBF06C099B7977F99BF65
:100310009FB79F779FBFF801938597BD928596BD44
:1003200097819BBD96819ABD918599BD908598BD19
:100330009FB5F92AFFBC9EB5892B8EBD0F900F90FB
:10034000DF91CF911F910F91FF900895611103C02C
:100350009BBD8ABD089599BD88BD08951F920F92D7
:100360000FB60F9211242F933F934F935F936F9388
:100370007F938F939F93AF93BF93EF93FF93E091FE
:100380008A00F0918B000684F785E02D0995FF9196
:10039000EF91BF91AF919F918F917F916F915F91FD
:1003A0004F913F912F910F900FBE0F901F90189576
:1003B0001F920F920FB60F9211242F933F934F93DA
:1003C0005F936F937F938F939F93AF93BF93EF93BD
:1003D000FF93E0918A00F0918B000088F189E02D75
:1003E0000995FF91EF91BF91AF919F918F917F916F
:1003F0006F915F914F913F912F910F900FBE0F9092
:100400001F9018951F920F920FB60F9211242F93E1
:100410003F934F935F936F937F938F939F93AF938C
:10042000BF93EF93FF93E0918C00F0918D000780D4
:10043000F085E02D0995FF91EF91BF91AF919F91CC
:100440008F917F916F915F914F913F912F910F907D
:100450000FBE0F901F9018951F920F920FB60F921C
:1004600011242F933F934F935F936F937F938F93B9
:100470009F93AF93BF93EF93FF93E0918E00F09122
:100480008F000084F185E02D0995FF91EF91BF91D8
:10049000AF919F918F917F916F915F914F913F911C
:1004A0002F910F900FBE0F901F9018951F920F92D3
:1004B0000FB60F9211242F933F934F935F936F9337
:1004C0007F938F939F93AF93BF93EF93FF93E091AD
:1004D0008E00F0918F000680F781E02D0995FF9145
:1004E000EF91BF91AF919F918F917F916F915F91AC
:1004F0004F913F912F910F900FBE0F901F90189525
:100500000F931F93CF93DF9300D0CDB7DEB78C014D
:100510009093910080939000FC0182819EEF980F50
:100520009230B8F580B5806880BD80B5806480BDAC
:100530008181813041F480B5806880BD90B5818132
:10054000892B80BD0AC08E3F41F480B5806880BD94
:1005500090B5F8018181892380BDF801658176819C
:1005600080E090E00E94EE099B01AC010E94E1084E
:100570009B01AC0160E074E284EF9AE40E944D09B3
:1005800020E030E040E05FE30E94E0080E94BF0905
:100590004FC0811127C080B5806880BD80B58F7B3A
:1005A00080BD8BB182608BB9F8016581768180E076
:1005B00090E00E94EE0920E030E040E051E40E942B
:1005C0007C0A9B01AC0160E074E284EF9AE40E9433
:1005D0004D0920E030E040E05FE30E94E0080E9427
:1005E000BF0926C080B5806880BD80B58F7B80BD87
:1005F0008BB18D7F8BB9F8016581768180E090E0C9
:100600000E94EE0920E030E040E851E40E947C0ABC
:100610009B01AC0160E074E284EF9AE40E944D0912
:1006200020E030E040E05FE30E94E0080E94BF0964
:10063000F8018381833011F128F4813041F0823058
:1006400081F03CC0843039F1853079F137C08AB10E
:100650008B7F8AB980B5806880BD80B5897F80BD79
:100660002DC08AB18B7F8AB980B5806880BD80B586
:10067000897F80BD80B5826080BD20C08AB18B7FBC
:100680008AB980B5806880BD80B5897F80BD80B51E
:10069000846080BD13C08AB18B7F8AB980B58068C1
:1006A00080BD80B5866080BD09C08AB184608AB98A
:1006B00080B5806880BD80B5866080BDF80184818A
:1006C000883051F0873F81F480B5806880BD90B557
:1006D0008481892380BD08C080B5806880BD90B5C5
:1006E000F8018481892B80BDF80187818033B9F0BE
:1006F0008F3C19F08032D9F409C080B5806880BD84
:1007000090B5F8018781892380BD11C080B58068CC
:1007100080BD90B5F8018781892B80BD08C080B568
:10072000806880BD90B5F8018781892B80BD80B538
:100730008F7780BD70BD69B9F8018085813069F01F
:1007400028F08230C1F0833021F130C08AB18F713E
:100750008AB98FB78F778FBF29C0F80181859285BD
:100760009093A8008093A7008AB180648AB98FB75C
:1007700080688FBF1BC0F801818592859093AA0085
:100780008093A9008AB180628AB98FB780688FBFD1
:100790000DC0F801818592859093AC008093AB00E9
:1007A0008AB180688AB98FB780688FBFF80180816D
:1007B0009AB1892B8AB9E0919000F09191008281E1
:1007C000823061F481E0898383E08A83BE016F5FB8
:1007D0007F4F86E390E00E94BE000DC0833059F445
:1007E00081E0898382E08A83BE016F5F7F4F86E369
:1007F00090E00E94BE000F900F90DF91CF911F916B
:100800000F910895611115C05F9BFECFE09190009C
:10081000F09191002381253031F42AB12695217081
:10082000FC01108221832CB130E0FC013183208354
:1008300008955F9B12C0E0919000F0919100238198
:10084000253031F42AB126952170FC0110822183D4
:100850002CB130E0FC013183208308951F920F9268
:100860000FB60F9211242F933F934F935F936F9383
:100870007F938F939F93AF93BF93EF93FF93E091F9
:10088000AB00F091AC000995FF91EF91BF91AF9152
:100890009F918F917F916F915F914F913F912F9198
:1008A0000F900FBE0F901F9018951F920F920FB6CA
:1008B0000F9211242F933F934F935F936F937F93E6
:1008C0008F939F93AF93BF93EF93FF93E091A90012
:1008D000F091AA000995FF91EF91BF91AF919F917F
:1008E0008F917F916F915F914F913F912F910F90D9
:1008F0000FBE0F901F9018951F920F920FB60F9278
:1009000011242F933F934F935F936F937F938F9314
:100910009F93AF93BF93EF93FF93E091A700F09164
:10092000A8000995FF91EF91BF91AF919F918F9191
:100930007F916F915F914F913F912F910F900FBEDB
:100940000F901F9018951F93CF93DF9300D0CDB7D2
:10095000DEB782E0898313E01A83BE016F5F7F4FA9
:1009600089E390E00E94BE0084E089831A83BE017F
:100970006F5F7F4F89E390E00E94BE0088E089832B
:100980001A83BE016F5F7F4F89E390E00E94BE0033
:1009900080E189831A83BE016F5F7F4F89E390E016
:1009A0000E94BE0080E289831A83BE016F5F7F4F81
:1009B00089E390E00E94BE0080E489831A83BE012F
:1009C0006F5F7F4F89E390E00E94BE0080E88983DB
:1009D0001A83BE016F5F7F4F89E390E00E94BE00E3
:1009E0000F900F90DF91CF911F910895E82FF0E0C5
:1009F000E05AFF4F608189E390E00E94F50008957E
:100A0000CF93DF93CDB7DEB762970FB6F894DEBF12
:100A10000FBECDBF1A86198618861F8280E889838B
:100A20001A8283E08B8383EC99E09C878B871D82FD
:100A30001E821C82188A1F861A8A198A1E861D86A3
:100A4000CE0101960E9427018B859C85019690938B
:100A500093008093920062960FB6F894DEBF0FBEAB
:100A6000CDBFDF91CF910895482FE0919200F09192
:100A700093009F01ADECBCEC0E94E90A9695879526
:100A800096958795411106C04E9FC0014F9F900DCE
:100A9000112407C0489F9001499F300D1124C901BE
:100AA000019760E00E94A6010895E4E9F0E020E8E3
:100AB00035E2368325839EEF918391E09283811105
:100AC00007C083E0808783E397E09287818705C032
:100AD000E4E9F0E0108612861186E4E9F0E088E1AE
:100AE000808384E0838387EF84838FEC8783CF01C7
:100AF0000E948002089560E00E9402040895CF934E
:100B0000C82F682F607F86E390E00E94F50040E0E8
:100B100062E086E390E00E94E60040E068E086E361
:100B200090E00E94E60041E064E086E390E00E94ED
:100B3000E60082E08A95F1F700C040E064E086E3D9
:100B400090E00E94E6008FE891E00197F1F700C085
:100B5000000090E1C99FB001112486E390E00E945B
:100B6000F50040E062E086E390E00E94E60040E0AD
:100B700068E086E390E00E94E60041E064E086E3FE
:100B800090E00E94E60082E08A95F1F700C040E024
:100B900064E086E390E00E94E6008FE99FE0019721
:100BA000F1F700C00000CF910895EF92FF920F93EC
:100BB0001F93CF93DF9300D0CDB7DEB713E01A8336
:100BC00081E08983BE016F5F7F4F86E390E00E94E2
:100BD000BE001A836894FF24F1F8F982BE016F5FAA
:100BE0007F4F86E390E00E94BE001A836894EE2453
:100BF000E2F8E982BE016F5F7F4F86E390E00E94DA
:100C0000BE001A8308E00983BE016F5F7F4F86E351
:100C100090E00E94BE001A8380E18983BE016F5F6D
:100C20007F4F86E390E00E94BE001A8380E28983B2
:100C3000BE016F5F7F4F86E390E00E94BE001A8383
:100C400080E48983BE016F5F7F4F86E390E00E945E
:100C5000BE001A8380E88983BE016F5F7F4F86E301
:100C600090E00E94BE001A83E982BE016F5F7F4F51
:100C700086E390E00E94BE001A83F982BE016F5F96
:100C80007F4F86E390E00E94BE001A830983BE0175
:100C90006F5F7F4F86E390E00E94BE008FE39CE988
:100CA0000197F1F700C0000082E00E947F0588E212
:100CB0000E947F0586E00E947F0580E80E947F05F4
:100CC0008CE00E947F0581E00E947F058FE99FE014
:100CD0000197F1F700C000000F900F90DF91CF91C6
:100CE0001F910F91FF90EF90089581E00E947F0582
:100CF0008FE99FE00197F1F700C0000080E80E94B3
:100D00007F050895811107C0603168F480E8860F7F
:100D10000E947F050895813031F4603120F480EC29
:100D2000860F0E947F050895CF93C82F682F607F9C
:100D300086E390E00E94F50041E062E086E390E007
:100D40000E94E60040E068E086E390E00E94E60052
:100D500041E064E086E390E00E94E60082E08A954C
:100D6000F1F700C040E064E086E390E00E94E60016
:100D70008FE891E00197F1F700C0000090E1C99F72
:100D8000B001112486E390E00E94F50041E062E0AA
:100D900086E390E00E94E60040E068E086E390E0B1
:100DA0000E94E60041E064E086E390E00E94E600F5
:100DB00082E08A95F1F700C040E064E086E390E0CD
:100DC0000E94E6008FE99FE00197F1F700C0000064
:100DD000CF9108950F931F93CF93DF938C01C0E0C1
:100DE000D0E021C021960F5F1F4F0E949406C031B2
:100DF000D10529F460E081E00E94820614C0C0326F
:100E0000D10589F42FEF84E39CE02150804090408D
:100E1000E1F700C000000E94750660E080E00E94DB
:100E20008206C0E0D0E0F80180818111DBCFDF9144
:100E3000CF911F910F9108951F920F920FB60F92AD
:100E400011248F939F9380919F009091A000019611
:100E50009093A00080939F009F918F910F900FBE61
:100E60000F901F9018958EEA90E00E947B0580916C
:100E7000AE008234F9F40E9475068BE690E00E9481
:100E8000EA0641E060E183E390E00E94E60040E092
:100E900060E283E390E00E94E60041E060E483E3E7
:100EA00090E00E94E60040E060E883E390E00E946A
:100EB000E60008958634F9F40E94750680E790E014
:100EC0000E94EA0640E060E183E390E00E94E600D1
:100ED00041E060E283E390E00E94E60040E060E4ED
:100EE00083E390E00E94E60041E060E883E390E065
:100EF0000E94E6000895823519F50E94750688E77C
:100F000090E00E94EA0681E090E00E94340541E012
:100F100060E183E390E00E94E60040E060E283E36A
:100F200090E00E94E60040E060E483E390E00E94ED
:100F3000E60041E060E883E390E00E94E600089567
:100F40008C3419F50E9475068EE790E00E94EA063F
:100F500081E090E00E94340540E060E183E390E0AE
:100F60000E94E60041E060E283E390E00E94E60038
:100F700041E060E483E390E00E94E60040E060E846
:100F800083E390E00E94E60008958335C9F440E0D1
:100F900060E183E390E00E94E60040E060E283E3EA
:100FA00090E00E94E60040E060E483E390E00E946D
:100FB000E60040E060E883E390E00E94E6000895E8
:100FC0008835E1F484E18093AD0013C061E086E3ED
:100FD00090E00E94F8002FEF80E792E021508040DF
:100FE0009040E1F700C000008091AD0081508093F7
:100FF000AD008091AD008111E9CF0895863539F4B7
:1010000041E068E083E390E00E94E60008958637BF
:1010100039F440E068E083E390E00E94E600089540
:10102000873539F441E062E083E390E00E94E60016
:101030000895873739F440E062E083E390E00E944E
:10104000E6000895853539F441E064E083E390E0FB
:101050000E94E6000895853739F440E064E083E3B8
:1010600090E00E94E6000895803379F40E947506AE
:1010700083E890E00E94EA0680E090E00E94340558
:1010800080E090E00E94F6040895813349F481E005
:1010900090E00E94340581E090E00E94F6040895FB
:1010A000823349F482E090E00E94340582E090E0CF
:1010B0000E94F6040895833349F483E090E00E948F
:1010C000340583E090E00E94F6040895843349F4E7
:1010D00084E090E00E94340584E090E00E94F604F1
:1010E0000895853341F485E090E00E94340585E061
:1010F00090E00E94F6040895CF93DF9300D0CDB71F
:10110000DEB781E0898313E01A83BE016F5F7F4FF2
:1011100086E390E00E94BE0082E089831A83BE01CC
:101120006F5F7F4F83E390E00E94BE0084E089837D
:101130001A83BE016F5F7F4F83E390E00E94BE0081
:1011400088E089831A83BE016F5F7F4F83E390E05D
:101150000E94BE0080E189831A83BE016F5F7F4FCA
:1011600083E390E00E94BE0080E289831A83BE017F
:101170006F5F7F4F83E390E00E94BE0080E489832D
:101180001A83BE016F5F7F4F83E390E00E94BE0031
:1011900080E889831A83BE016F5F7F4F83E390E00D
:1011A0000E94BE000E94A3040E94000581E090E01E
:1011B0000E94340580E00E9455050E94D505FFCFAE
:1011C0005058BB27AA270E94F8080C94420A0E9494
:1011D000340A38F00E943B0A20F039F49F3F19F49A
:1011E00026F40C94310A0EF4E095E7FB0C942B0ADC
:1011F000E92F0E94530A58F3BA176207730784074E
:10120000950720F079F4A6F50C94750A0EF4E09594
:101210000B2EBA2FA02D0B01B90190010C01CA01B0
:10122000A0011124FF27591B99F0593F50F4503E5B
:1012300068F11A16F040A22F232F342F4427585F4D
:10124000F3CF469537952795A795F0405395C9F765
:101250007EF41F16BA0B620B730B840BBAF091501D
:10126000A1F0FF0FBB1F661F771F881FC2F70EC0BC
:10127000BA0F621F731F841F48F48795779567958F
:10128000B795F7959E3F08F0B0CF9395880F08F07B
:101290009927EE0F9795879508950E9461090C9400
:1012A000420A0E943B0A58F00E94340A40F029F496
:1012B0005F3F29F00C942B0A51110C94760A0C9480
:1012C000310A0E94530A68F39923B1F3552391F32D
:1012D000951B550BBB27AA2762177307840738F0A5
:1012E0009F5F5F4F220F331F441FAA1FA9F335D002
:1012F0000E2E3AF0E0E832D091505040E695001CB6
:10130000CAF72BD0FE2F29D0660F771F881FBB1F6F
:10131000261737074807AB07B0E809F0BB0B802D4D
:10132000BF01FF2793585F4F3AF09E3F510578F079
:101330000C942B0A0C94760A5F3FE4F3983ED4F3A6
:10134000869577956795B795F7959F5FC9F7880F4D
:10135000911D9695879597F90895E1E0660F771F9F
:10136000881FBB1F621773078407BA0720F0621B30
:10137000730B840BBA0BEE1F88F7E09508950E945B
:101380005B0A88F09F5798F0B92F9927B751B0F0B2
:10139000E1F0660F771F881F991F1AF0BA95C9F7F9
:1013A00014C0B13091F00E94750AB1E008950C9418
:1013B000750A672F782F8827B85F39F0B93FCCF3CB
:1013C000869577956795B395D9F73EF49095809576
:1013D000709561957F4F8F4F9F4F0895E89409C096
:1013E00097FB3EF490958095709561957F4F8F4F58
:1013F0009F4F9923A9F0F92F96E9BB279395F6956E
:10140000879577956795B795F111F8CFFAF4BB0FEB
:1014100011F460FF1BC06F5F7F4F8F4F9F4F16C04F
:10142000882311F096E911C0772321F09EE8872FD9
:10143000762F05C0662371F096E8862F70E060E095
:101440002AF09A95660F771F881FDAF7880F96950E
:10145000879597F9089597F99F6780E870E060E0B5
:1014600008959FEF80EC089500240A94161617063D
:1014700018060906089500240A9412161306140685
:1014800005060895092E0394000C11F4882352F0E8
:10149000BB0F40F4BF2B11F460FF04C06F5F7F4FA0
:1014A0008F4F9F4F089557FD9058440F551F59F087
:1014B0005F3F71F04795880F97FB991F61F09F3F41
:1014C00079F087950895121613061406551FF2CF6A
:1014D0004695F1DF08C0161617061806991FF1CFBA
:1014E00086957105610508940895E894BB276627E1
:1014F0007727CB0197F908950E948F0A0C94420A2E
:101500000E94340A38F00E943B0A20F0952311F023
:101510000C942B0A0C94310A11240C94760A0E9424
:10152000530A70F3959FC1F3950F50E0551F629FCA
:10153000F001729FBB27F00DB11D639FAA27F00D2C
:10154000B11DAA1F649F6627B00DA11D661F829F53
:101550002227B00DA11D621F739FB00DA11D621F38
:10156000839FA00D611D221F749F3327A00D611D55
:10157000231F849F600D211D822F762F6A2F112437
:101580009F5750409AF0F1F088234AF0EE0FFF1F6A
:10159000BB1F661F771F881F91505040A9F79E3FC1
:1015A000510580F00C942B0A0C94760A5F3FE4F30B
:1015B000983ED4F3869577956795B795F795E79517
:1015C0009F5FC1F7FE2B880F911D9695879597F920
:1015D0000895A29FB001B39FC001A39F700D811D0C
:1015E0001124911DB29F700D811D1124911D08952C
:0415F000F894FFCF9D
:1015F4007E60B69ECCDAFA0EFEDE004241434B001A
:10160400464F5257415244005249474854004C45B2
:0816140046540053544F4200FC
:00000001FF
