S018000041746D65676133325F447269766572732E737265631A
S11300000C942A000C943E000C9465000C948C0013
S11300100C943C000C943C000C943C000C940701A0
S11300200C9431010C94DD000C9485010C94AF0107
S11300300C945B010C94D9010C9400020C942702DB
S11300400C943C000C943C000C943C000C94B300C5
S11300500C943C0011241FBECFE5D8E0DEBFCDBF19
S113006020E0A0E6B0E001C01D92A437B207E1F79A
S11300700E944E020C944F020C9400001F920F92A7
S11300800FB60F9211242F933F934F935F936F9367
S11300907F938F939F93AF93BF93EF93FF93E091DD
S11300A06800F09169000995FF91EF91BF91AF91BC
S11300B09F918F917F916F915F914F913F912F917C
S11300C00F900FBE0F901F9018951F920F920FB6AE
S11300D00F9211242F933F934F935F936F937F93CA
S11300E08F939F93AF93BF93EF93FF93E0916A0035
S11300F0F0916B000995FF91EF91BF91AF919F91A2
S11301008F917F916F915F914F913F912F910F90BC
S11301100FBE0F901F9018951F920F920FB60F925B
S113012011242F933F934F935F936F937F938F93F8
S11301309F93AF93BF93EF93FF93E0916C00F09183
S11301406D000995FF91EF91BF91AF919F918F91B0
S11301507F916F915F914F913F912F910F900FBEBF
S11301600F901F9018951F920F920FB60F921124A3
S11301702F933F934F935F936F937F938F939F93AB
S1130180AF93BF93EF93FF93E0916000F091610010
S11301900480F581E02D0995FF91EF91BF91AF9116
S11301A09F918F917F916F915F914F913F912F918B
S11301B00F900FBE0F901F9018951F920F920FB6BD
S11301C00F9211242F933F934F935F936F937F93D9
S11301D08F939F93AF93BF93EF93FF93E09162004C
S11301E0F09163000484F585E02D0995FF91EF916A
S11301F0BF91AF919F918F917F916F915F914F913B
S11302003F912F910F900FBE0F901F9018951F9242
S11302100F920FB60F9211242F933F934F935F9336
S11302206F937F938F939F93AF93BF93EF93FF93BA
S1130230E0916200F09163000684F785E02D099552
S1130240FF91EF91BF91AF919F918F917F916F91AA
S11302505F914F913F912F910F900FBE0F901F9080
S113026018951F920F920FB60F9211242F933F935C
S11302704F935F936F937F938F939F93AF93BF93AA
S1130280EF93FF93E0916200F09163000088F1899D
S1130290E02D0995FF91EF91BF91AF919F918F91BF
S11302A07F916F915F914F913F912F910F900FBE6E
S11302B00F901F9018951F920F920FB60F92112452
S11302C02F933F934F935F936F937F938F939F935A
S11302D0AF93BF93EF93FF93E0916400F0916500B7
S11302E00780F085E02D0995FF91EF91BF91AF91C3
S11302F09F918F917F916F915F914F913F912F913A
S11303000F900FBE0F901F9018951F920F920FB66B
S11303100F9211242F933F934F935F936F937F9387
S11303208F939F93AF93BF93EF93FF93E0916600F6
S1130330F09167000084F185E02D0995FF91EF911C
S1130340BF91AF919F918F917F916F915F914F91E9
S11303503F912F910F900FBE0F901F9018951F92F1
S11303600F920FB60F9211242F933F934F935F93E5
S11303706F937F938F939F93AF93BF93EF93FF9369
S1130380E0916600F09167000680F781E02D099501
S1130390FF91EF91BF91AF919F918F917F916F9159
S11303A05F914F913F912F910F900FBE0F901F902F
S11303B018951F920F920FB60F9211242F933F930B
S11303C04F935F936F937F938F939F93AF93BF9359
S11303D0EF93FF93E0917200F09173000995FF9100
S11303E0EF91BF91AF919F918F917F916F915F91A9
S11303F04F913F912F910F900FBE0F901F90189522
S11304001F920F920FB60F9211242F933F934F9385
S11304105F936F937F938F939F93AF93BF93EF9368
S1130420FF93E0917000F09171000995FF91EF91B5
S1130430BF91AF919F918F917F916F915F914F91F8
S11304403F912F910F900FBE0F901F9018951F9200
S11304500F920FB60F9211242F933F934F935F93F4
S11304606F937F938F939F93AF93BF93EF93FF9378
S1130470E0916E00F0916F000995FF91EF91BF91AB
S1130480AF919F918F917F916F915F914F913F9128
S11304902F910F900FBE0F901F901895FFCFF894D7
S10504A0FFCF88
S9030000FC
