:100000000C9434000C9453000C947A000C94A100CE
:100010000C9451000C9451000C9451000C94EF027C
:100020000C9419030C94C5020C946D030C94970363
:100030000C9443030C94C1030C94E8030C940F0438
:100040000C9451000C9451000C9451000C94140227
:100050000C945100410146014C01640152015801C8
:1000600070015E0176016A0111241FBECFE5D8E060
:10007000DEBFCDBF11E0A0E6B0E0E2E7F6E102C0EE
:1000800005900D92A431B107D9F721E0A4E1B1E0C8
:1000900001C01D92AD32B207E1F70E94C5070C9472
:1000A000370B0C9400001F920F920FB60F92112481
:1000B0002F933F934F935F936F937F938F939F9370
:1000C000AF93BF93EF93FF93E0912001F091210153
:1000D0000995FF91EF91BF91AF919F918F917F9182
:1000E0006F915F914F913F912F910F900FBE0F90A5
:1000F0001F9018951F920F920FB60F9211242F93F5
:100100003F934F935F936F937F938F939F93AF939F
:10011000BF93EF93FF93E0912201F09123010995A2
:10012000FF91EF91BF91AF919F918F917F916F91CF
:100130005F914F913F912F910F900FBE0F901F90A5
:1001400018951F920F920FB60F9211242F933F9381
:100150004F935F936F937F938F939F93AF93BF93CF
:10016000EF93FF93E0912401F09125010995FF9110
:10017000EF91BF91AF919F918F917F916F915F911F
:100180004F913F912F910F900FBE0F901F90189598
:10019000FC01DB0111968C911197813059F48C91FF
:1001A00080959181892381838C9180959281892387
:1001B00082830895823051F48C91809591818923B6
:1001C00081838C919281892B828308958C91918176
:1001D000892B81838C9180959281892382830895D4
:1001E000FC01808190E00895413029F4FC012281D6
:1001F000622B62830895411105C06095FC01228144
:10020000622362830895FC0162830895FC01909348
:10021000150180931401808182B9838181B9828123
:10022000813039F496B7892B86BF8FB780688FBF2E
:1002300006C096B7892386BF8FB78F778FBF21817E
:1002400030E040E050E060E472E48FE090E00E9433
:100250000F0BDA01C9014097A109B109B695A7951D
:100260009795879580B986B7846486BF089590E096
:100270008A30910508F053C0FC01E65DFF4F0C94F5
:10028000310B06B607FE38C021E049C081B1887F36
:100290008830A1F121E043C081B1887F883181F1AC
:1002A00021E03DC081B1887F883261F121E037C013
:1002B00081B1887F803641F121E031C081B1887FF2
:1002C000803821F121E02BC081B1887F803401F199
:1002D00021E025C081B1887F8035E1F021E01FC099
:1002E00081B1887F883AC1F021E019C081B1887F4F
:1002F000883BA1F021E013C020E011C020E00FC036
:1003000020E00DC020E00BC020E009C020E007C0C5
:1003100020E005C020E003C020E001C020E0822FE3
:10032000089584EA86BF80E00E9437018823D9F3CC
:1003300081E00E94370186B78F7586BF089584E9F2
:1003400086BF0895FF920F931F93CF93DF93C82F1B
:100350008B01D42FF22E0E949101C3B986B7806819
:1003600086BF80E00E9437018823D9F382E00E9493
:100370003701C0E011C0F801EC0FF11D808183B995
:1003800086B7806886BF80E00E9437018823D9F352
:1003900084E00E943701CF5FCD1768F3F11002C0EF
:1003A0000E949F01DF91CF911F910F91FF900895BF
:1003B0000F931F93CF93DF93C82F8B01D42F0E94ED
:1003C0009101C3B986B7806C86BF80E00E94370177
:1003D0008823D9F383E00E943701C0E01CC02C2F92
:1003E00030E08D2F90E001972817390719F486B770
:1003F0008F7B86BF86B7806886BF80E00E9437010A
:100400008823D9F389E00E943701F801EC0FF11D30
:1004100083B18083CF5FCD1710F30E949F01DF91DE
:10042000CF911F910F9108951F920F920FB60F92C7
:1004300011242F933F934F935F936F937F938F93E9
:100440009F93AF93BF93EF93FF93E0911401F091CB
:1004500015010480F581E02D0995FF91EF91BF9181
:10046000AF919F918F917F916F915F914F913F914C
:100470002F910F900FBE0F901F901895EF92FF9243
:100480000F931F93CF93DF9300D0CDB7DEB78C01CE
:100490009093170180931601FC018081F82FF26080
:1004A000FF2E882359F080E2898383E08A83BE018E
:1004B0006F5F7F4F80E390E00E94C800F801818168
:1004C000F82FF861EF2E882359F080E1898383E0CB
:1004D0008A83BE016F5F7F4F80E390E00E94C80077
:1004E000F80182818E299381913039F499B7946013
:1004F00099BF9FB790689FBF06C099B79B7F99BF70
:100500009FB79F779FBFF8019481913039F499B7D5
:10051000906199BF9FB790689FBF06C099B79F7EB3
:1005200099BF9FB79F779FBFF8019481913039F4AD
:1005300099B7906199BF9FB790689FBF06C099B760
:10054000977F99BF9FB79F779FBFF801938597BD0E
:10055000928596BD97819BBD96819ABD918599BDE7
:10056000908598BDFFBC8EBD0F900F90DF91CF910D
:100570001F910F91FF90EF900895611103C09BBDF3
:100580008ABD089599BD88BD08951F920F920FB638
:100590000F9211242F933F934F935F936F937F9309
:1005A0008F939F93AF93BF93EF93FF93E0911601C7
:1005B000F09117010484F585E02D0995FF91EF91E5
:1005C000BF91AF919F918F917F916F915F914F916B
:1005D0003F912F910F900FBE0F901F9018951F9273
:1005E0000F920FB60F9211242F933F934F935F9367
:1005F0006F937F938F939F93AF93BF93EF93FF93EB
:10060000E0911601F09117010684F785E02D099518
:10061000FF91EF91BF91AF919F918F917F916F91DA
:100620005F914F913F912F910F900FBE0F901F90B0
:1006300018951F920F920FB60F9211242F933F938C
:100640004F935F936F937F938F939F93AF93BF93DA
:10065000EF93FF93E0911601F09117010088F18963
:10066000E02D0995FF91EF91BF91AF919F918F91EF
:100670007F916F915F914F913F912F910F900FBE9E
:100680000F901F9018951F920F920FB60F92112482
:100690002F933F934F935F936F937F938F939F938A
:1006A000AF93BF93EF93FF93E0911801F09119017D
:1006B0000780F085E02D0995FF91EF91BF91AF91F3
:1006C0009F918F917F916F915F914F913F912F916A
:1006D0000F900FBE0F901F9018951F920F920FB69C
:1006E0000F9211242F933F934F935F936F937F93B8
:1006F0008F939F93AF93BF93EF93FF93E0911A0172
:10070000F0911B010084F185E02D0995FF91EF9197
:10071000BF91AF919F918F917F916F915F914F9119
:100720003F912F910F900FBE0F901F9018951F9221
:100730000F920FB60F9211242F933F934F935F9315
:100740006F937F938F939F93AF93BF93EF93FF9399
:10075000E0911A01F0911B010680F781E02D0995C7
:10076000FF91EF91BF91AF919F918F917F916F9189
:100770005F914F913F912F910F900FBE0F901F905F
:1007800018951F920F920FB60F9211242F933F933B
:100790004F935F936F937F938F939F93AF93BF9389
:1007A000EF93FF93E0912A01F0912B010995FF91BE
:1007B000EF91BF91AF919F918F917F916F915F91D9
:1007C0004F913F912F910F900FBE0F901F90189552
:1007D0001F920F920FB60F9211242F933F934F93B6
:1007E0005F936F937F938F939F93AF93BF93EF9399
:1007F000FF93E0912801F09129010995FF91EF9174
:10080000BF91AF919F918F917F916F915F914F9128
:100810003F912F910F900FBE0F901F9018951F9230
:100820000F920FB60F9211242F933F934F935F9324
:100830006F937F938F939F93AF93BF93EF93FF93A8
:10084000E0912601F09127010995FF91EF91BF9169
:10085000AF919F918F917F916F915F914F913F9158
:100860002F910F900FBE0F901F90189581BD089586
:1008700081B5886081BD089588E181BD11BC08956E
:10088000CF93DF9300D000D000D0CDB7DEB78EEF8E
:100890008B831E821D8280EA8A8381E08C83CE0155
:1008A00001960E94060126960FB6F894DEBF0FBE91
:1008B000CDBFDF91CF910895CF93DF93CDB7DEB752
:1008C000CF5FD1090FB6F894DEBF0FBECDBFFB01DD
:1008D00099838A8352E009C02191A1E0B0E0AC0F76
:1008E000BD1FA80FB91F2C935F5F852F90E0242FA9
:1008F00030E02E5F3F4F8217930774F34E5F20E086
:10090000BE016F5F7F4F86EA0E94A201C150DF4F98
:100910000FB6F894DEBF0FBECDBFDF91CF91089523
:10092000FF920F931F93CF93DF9300D0CDB7DEB725
:100930008B01F42E99838A8321E042E0BE016F5F30
:100940007F4F86EA0E94A2014F2DB80187EA0E94DC
:10095000D8010F900F90DF91CF911F910F91FF90D1
:1009600008951F93CF93DF9300D0CDB7DEB713E088
:100970001A8380E18983BE016F5F7F4F83E390E03C
:100980000E94C8001A8380E28983BE016F5F7F4F97
:1009900083E390E00E94C8001A8380E48983BE014B
:1009A0006F5F7F4F83E390E00E94C8001A8380E866
:1009B0008983BE016F5F7F4F83E390E00E94C80090
:1009C00012E01A8381E08983BE016F5F7F4F80E36D
:1009D00090E00E94C8001A831983BE016F5F7F4FA9
:1009E00080E390E00E94C8001A8384E08983BE01FE
:1009F0006F5F7F4F80E390E00E94C8001A8388E019
:100A00008983BE016F5F7F4F80E390E00E94C80042
:100A10000F900F90DF91CF911F9108950F931F9327
:100A2000CF93DF9300E010E05AC041E060E183E340
:100A300090E00E94F40041E060E283E390E00E94D5
:100A4000F40041E060E483E390E00E94F40041E0C0
:100A500060E883E390E00E94F400F801EE0FFF1FCE
:100A6000E05AFF4F608140E083E390E00E94F40091
:100A7000C0E0D0E02FC080E390E00E94F000FE01D3
:100A8000EE0FFF1FE859FF4F9927008002C0959590
:100A900087950A94E2F780FD1CC080E390E00E94F5
:100AA000F000FE01EE0FFF1FE859FF4F992700806D
:100AB00002C0959587950A94E2F780FFEECFCC0FA0
:100AC000DD1FCC0FDD1FC059DF4FC00FD11F888144
:100AD0000BC02196C430D10574F20F5F1F4F043054
:100AE00011050CF4A2CF8EE6DF91CF911F910F91EB
:100AF0000895CF93C82F682F607F89E390E00E940C
:100B0000030140E062E086E390E00E94F40040E0F0
:100B100068E086E390E00E94F40041E064E086E350
:100B200090E00E94F400000040E064E086E390E082
:100B30000E94F40082E48A95F1F700C090E1C99F19
:100B4000B001112489E390E00E94030140E062E0DB
:100B500086E390E00E94F40040E068E086E390E0E5
:100B60000E94F40041E064E086E390E00E94F4001B
:100B7000000040E064E086E390E00E94F40083EF30
:100B800091E00197F1F700C00000CF910895EF9236
:100B9000FF920F931F93CF93DF9300D0CDB7DEB7B3
:100BA00013E01A8381E08983BE016F5F7F4F89E381
:100BB00090E00E94C8001A836894FF24F1F8F9823B
:100BC000BE016F5F7F4F89E390E00E94C8001A83E7
:100BD0006894EE24E2F8E982BE016F5F7F4F89E3FB
:100BE00090E00E94C8001A8308E00983BE016F5F8D
:100BF0007F4F89E390E00E94C8001A8380E18983D7
:100C0000BE016F5F7F4F89E390E00E94C8001A83A6
:100C100080E28983BE016F5F7F4F89E390E00E948D
:100C2000C8001A8380E48983BE016F5F7F4F89E328
:100C300090E00E94C8001A8380E88983BE016F5F3C
:100C40007F4F89E390E00E94C8001A83E982BE01C9
:100C50006F5F7F4F86E390E00E94C8001A83F9829D
:100C6000BE016F5F7F4F86E390E00E94C8001A8349
:100C70000983BE016F5F7F4F86E390E00E94C8004A
:100C800087E893E10197F1F700C0000082E00E943D
:100C9000790588E20E94790586E00E94790580E85E
:100CA0000E9479058CE00E94790581E00E94790517
:100CB00083EF91E00197F1F700C000000F900F90D3
:100CC000DF91CF911F910F91FF90EF90089581E0F8
:100CD0000E94790583EF91E00197F1F700C00000D1
:100CE00080E80E9479050895811107C0603168F499
:100CF00080E8860F0E9479050895813031F46031D3
:100D000020F480EC860F0E9479050895CF93C82FB8
:100D1000682F607F89E390E00E94030141E062E078
:100D200086E390E00E94F40040E068E086E390E013
:100D30000E94F40041E064E086E390E00E94F40049
:100D4000000040E064E086E390E00E94F40082E46A
:100D50008A95F1F700C090E1C99FB001112489E3A1
:100D600090E00E94030141E062E086E390E00E948F
:100D7000F40040E068E086E390E00E94F40041E087
:100D800064E086E390E00E94F400000040E064E04C
:100D900086E390E00E94F40083EF91E00197F1F781
:100DA00000C00000CF9108950F931F93CF93DF935E
:100DB0008C01C0E0D0E021C021960F5F1F4F0E9440
:100DC0008606C031D10529F460E081E00E947406F6
:100DD00014C0C032D10589F42FE986E891E0215092
:100DE00080409040E1F700C000000E94670660E08C
:100DF00080E00E947406C0E0D0E0F801808181119B
:100E0000DBCFDF91CF911F910F910895CF93DF93A7
:100E1000CDB7DEB762970FB6F894DEBF0FBECDBF79
:100E20001A86198618861F821A8280E8898383E0D1
:100E30008B8387E391E09C878B871D821E821C82B7
:100E4000188A1F861A8A198A1E861D86CE01019667
:100E50000E943E0262960FB6F894DEBF0FBECDBF71
:100E6000DF91CF910895682F70E080E090E00E94BC
:100E7000160A2CED39E64AEB56E30E94A20A2FE649
:100E800032E143E85AE30E9407092DEB37E346E8D5
:100E900058E30E94730920E030E040E05FE30E94E5
:100EA00006090E94E509DC01CB0160E00E94BD0259
:100EB00008951F93CF93DF9300D0CDB7DEB713E033
:100EC0001A8380E18983BE016F5F7F4F86E390E0E4
:100ED0000E94C8001A8380E28983BE016F5F7F4F42
:100EE00086E390E00E94C8000F900F90DF91CF91B1
:100EF0001F9108950E940E0580932C0104C00E944A
:100F00000E0580932C0180912C018E36C1F38093C5
:100F10001C018AE20E9486060E940E0580932C0125
:100F200004C00E940E0580932C0180912C018E3606
:100F3000C1F380931D018AE20E9486060E940E057D
:100F400080932C0104C00E940E0580932C01809197
:100F50002C018E36C1F380931E018AE20E94860620
:100F60000E940E0580932C0104C00E940E05809300
:100F70002C0180912C018E36C1F380931F018AE2EF
:100F80000E9486060E94670608950E943C0487E03E
:100F90000E9436040E9440040E94B1040E94C705CA
:100FA0000E9406070E9459072FE986E891E0215028
:100FB00080409040E1F700C0000044E062E870E04B
:100FC00080E090E00E949004809182008F3F59F56C
:100FD000809183008F3F39F586E890E00E94D40627
:100FE0002FE38DE093E0215080409040E1F700C076
:100FF00000000E9467060E947A0744E06CE171E0FD
:1010000080E090E00E945C0483EA90E00E94D406B5
:101010002FE38DE093E0215080409040E1F700C045
:1010200000000E94670683E08093810044E062E84C
:1010300070E080E090E00E9490048BEA90E00E94D3
:10104000D4062FE38DE093E0215080409040E1F7FB
:1010500000C000000E9467060E947A0771C02091BC
:10106000820090911C01291324C02091830090914B
:101070001D0129131EC02091840090911E01291387
:1010800018C02091850090911F01291312C086EC91
:1010900090E00E94D4062FE38DE093E02150804041
:1010A0009040E1F700C000000E94670610928100A6
:1010B00047C081508093810084EC90E00E94D40668
:1010C0002FE38DE093E0215080409040E1F700C095
:1010D00000000E94670680918100811120C00E945B
:1010E000380441E060E286E390E00E94F4008EEC78
:1010F00090E00E94D4062FE988E696E021508040D7
:101100009040E1F700C000000E9467062FE986E8E2
:1011100091E0215080409040E1F700C000008AED4E
:1011200090E00E94D4062FE38DE093E021508040B0
:101130009040E1F700C000000E9467060E947A0715
:101140008091810081118BCF82EF90E00E94D406C4
:1011500060E081E00E94740688E091E00E94D4067D
:101160000E940E058093800004C00E940E058093AB
:101170008000809180008E36C1F30E9467068091C6
:101180008000813011F50E94670687EA91E6019799
:10119000F1F700C0000086E890E00E94D4069FE9C5
:1011A00026E881E0915020408040E1F700C0000037
:1011B0000E9467060E947A0744E06CE171E080E0DB
:1011C00090E00E945C0410928000809180008E3636
:1011D00009F4BACF8AE50E94330741E060E186E373
:1011E00090E00E94F4009FEB27E289E091502040BC
:1011F0008040E1F700C0000040E060E186E390E05D
:101200000E94F40080E00E9433070DCF5058BB27A6
:10121000AA270E941E090C94680A0E945A0A38F0F4
:101220000E94610A20F039F49F3F19F426F40C94CF
:10123000570A0EF4E095E7FB0C94510AE92F0E943F
:10124000790A58F3BA17620773078407950720F0E5
:1012500079F4A6F50C949B0A0EF4E0950B2EBA2FA8
:10126000A02D0B01B90190010C01CA01A0011124AC
:10127000FF27591B99F0593F50F4503E68F11A1658
:10128000F040A22F232F342F4427585FF3CF4695E9
:1012900037952795A795F0405395C9F77EF41F160B
:1012A000BA0B620B730B840BBAF09150A1F0FF0FD5
:1012B000BB1F661F771F881FC2F70EC0BA0F621FC1
:1012C000731F841F48F4879577956795B795F795B1
:1012D0009E3F08F0B0CF9395880F08F09927EE0F46
:1012E0009795879508950E9487090C94680A0E9433
:1012F000610A58F00E945A0A40F029F45F3F29F031
:101300000C94510A51110C949C0A0C94570A0E9497
:10131000790A68F39923B1F3552391F3951B550B83
:10132000BB27AA2762177307840738F09F5F5F4FB8
:10133000220F331F441FAA1FA9F335D00E2E3AF0F7
:10134000E0E832D091505040E695001CCAF72BD00F
:10135000FE2F29D0660F771F881FBB1F2617370760
:101360004807AB07B0E809F0BB0B802DBF01FF2792
:1013700093585F4F3AF09E3F510578F00C94510A14
:101380000C949C0A5F3FE4F3983ED4F386957795DE
:101390006795B795F7959F5FC9F7880F911D96954B
:1013A000879597F90895E1E0660F771F881FBB1FA7
:1013B000621773078407BA0720F0621B730B840B54
:1013C000BA0BEE1F88F7E09508950E94810A88F015
:1013D0009F5798F0B92F9927B751B0F0E1F0660FF9
:1013E000771F881F991F1AF0BA95C9F714C0B1303A
:1013F00091F00E949B0AB1E008950C949B0A672F1C
:10140000782F8827B85F39F0B93FCCF38695779568
:101410006795B395D9F73EF4909580957095619551
:101420007F4F8F4F9F4F0895E89409C097FB3EF47C
:1014300090958095709561957F4F8F4F9F4F992321
:10144000A9F0F92F96E9BB279395F695879577959F
:101450006795B795F111F8CFFAF4BB0F11F460FF5F
:101460001BC06F5F7F4F8F4F9F4F16C0882311F0B7
:1014700096E911C0772321F09EE8872F762F05C0CB
:10148000662371F096E8862F70E060E02AF09A9566
:10149000660F771F881FDAF7880F9695879597F95B
:1014A000089597F99F6780E870E060E008959FEFE6
:1014B00080EC089500240A941616170618060906EB
:1014C000089500240A9412161306140605060895BA
:1014D000092E0394000C11F4882352F0BB0F40F442
:1014E000BF2B11F460FF04C06F5F7F4F8F4F9F4F82
:1014F000089557FD9058440F551F59F05F3F71F004
:101500004795880F97FB991F61F09F3F79F087956A
:101510000895121613061406551FF2CF4695F1DFF3
:1015200008C0161617061806991FF1CF8695710583
:10153000610508940895E894BB2766277727CB01B7
:1015400097F908950E94B50A0C94680A0E945A0AF5
:1015500038F00E94610A20F0952311F00C94510A92
:101560000C94570A11240C949C0A0E94790A70F377
:10157000959FC1F3950F50E0551F629FF001729F38
:10158000BB27F00DB11D639FAA27F00DB11DAA1F47
:10159000649F6627B00DA11D661F829F2227B00D94
:1015A000A11D621F739FB00DA11D621F839FA00D1F
:1015B000611D221F749F3327A00D611D231F849F6F
:1015C000600D211D822F762F6A2F11249F575040C6
:1015D0009AF0F1F088234AF0EE0FFF1FBB1F661F41
:1015E000771F881F91505040A9F79E3F510580F00A
:1015F0000C94510A0C949C0A5F3FE4F3983ED4F398
:10160000869577956795B795F795E7959F5FC1F7AD
:10161000FE2B880F911D9695879597F90895A1E265
:101620001A2EAA1BBB1BFD010DC0AA1FBB1FEE1F5C
:10163000FF1FA217B307E407F50720F0A21BB30BA7
:10164000E40BF50B661F771F881F991F1A9469F723
:1016500060957095809590959B01AC01BD01CF017F
:101660000895EE0FFF1F0590F491E02D0994F89472
:02167000FFCFAA
:101672001000200040008000000001000200030072
:101682000708092F0405062A0102032D63003D2BDA
:10169200010301010101506C6561736520656E747F
:1016A2006572206120206E65772070617373776F99
:1016B20072640057656C636F6D6500506C65617391
:1016C2006520656E74657220612020706173737786
:1016D2006F726400696E636F727265637400706C1E
:1016E20065617365207761697400506C656173652B
:1016F20020656E74657220612070617373776F72FA
:101702006400313A6368616E6765207468652070B1
:10171200617373776F726400323A636F6E74696ECD
:0417220075650000E9
:00000001FF
