:100000000C942A000C9449000C9470000C949700F6
:100010000C9447000C9447000C9447000C94490141
:100020000C9473010C941F010C94C7010C94F10102
:100030000C949D010C9412040C9439040C946004EB
:100040000C9447000C9447000C9447000C94F50066
:100050000C94470011241FBECFE5D8E0DEBFCDBF12
:1000600010E0A0E6B0E0E8EEFDE002C005900D92E1
:10007000A237B107D9F720E0A2E7B0E001C01D9296
:10008000A439B207E1F70E94D5040C94F2060C944F
:1000900000001F920F920FB60F9211242F933F93DF
:1000A0004F935F936F937F938F939F93AF93BF9380
:1000B000EF93FF93E0918700F09188000995FF91FD
:1000C000EF91BF91AF919F918F917F916F915F91D0
:1000D0004F913F912F910F900FBE0F901F90189549
:1000E0001F920F920FB60F9211242F933F934F93AD
:1000F0005F936F937F938F939F93AF93BF93EF9390
:10010000FF93E0918900F0918A000995FF91EF91AA
:10011000BF91AF919F918F917F916F915F914F911F
:100120003F912F910F900FBE0F901F9018951F9227
:100130000F920FB60F9211242F933F934F935F931B
:100140006F937F938F939F93AF93BF93EF93FF939F
:10015000E0918B00F0918C000995FF91EF91BF9198
:10016000AF919F918F917F916F915F914F913F914F
:100170002F910F900FBE0F901F901895FC01DB017F
:1001800011968C911197813059F48C9180959181C1
:10019000892381838C91809592818923828308951C
:1001A000823051F48C9180959181892381838C9147
:1001B0009281892B828308958C919181892B8183EF
:1001C0008C9180959281892382830895413029F40E
:1001D000FC012281622B62830895411105C0609564
:1001E000FC0122816223628308951F920F920FB651
:1001F0000F9211242F933F934F935F936F937F93AD
:100200008F939F93AF93BF93EF93FF93E09172000F
:10021000F09173000480F581E02D0995FF91EF9135
:10022000BF91AF919F918F917F916F915F914F910E
:100230003F912F910F900FBE0F901F9018951F9216
:100240000F920FB60F9211242F933F934F935F930A
:100250006F937F938F939F93AF93BF93EF93FF938E
:10026000E0917400F09175000484F585E02D099506
:10027000FF91EF91BF91AF919F918F917F916F917E
:100280005F914F913F912F910F900FBE0F901F9054
:1002900018951F920F920FB60F9211242F933F9330
:1002A0004F935F936F937F938F939F93AF93BF937E
:1002B000EF93FF93E0917400F09175000684F78549
:1002C000E02D0995FF91EF91BF91AF919F918F9193
:1002D0007F916F915F914F913F912F910F900FBE42
:1002E0000F901F9018951F920F920FB60F92112426
:1002F0002F933F934F935F936F937F938F939F932E
:10030000AF93BF93EF93FF93E0917400F09175006A
:100310000088F189E02D0995FF91EF91BF91AF9190
:100320009F918F917F916F915F914F913F912F910D
:100330000F900FBE0F901F9018951F920F920FB63F
:100340000F9211242F933F934F935F936F937F935B
:100350008F939F93AF93BF93EF93FF93E0917600BA
:10036000F09177000780F085E02D0995FF91EF91DE
:10037000BF91AF919F918F917F916F915F914F91BD
:100380003F912F910F900FBE0F901F9018951F92C5
:100390000F920FB60F9211242F933F934F935F93B9
:1003A0006F937F938F939F93AF93BF93EF93FF933D
:1003B000E0917800F09179000084F185E02D0995B5
:1003C000FF91EF91BF91AF919F918F917F916F912D
:1003D0005F914F913F912F910F900FBE0F901F9003
:1003E00018951F920F920FB60F9211242F933F93DF
:1003F0004F935F936F937F938F939F93AF93BF932D
:10040000EF93FF93E0917800F09179000680F781F7
:10041000E02D0995FF91EF91BF91AF919F918F9141
:100420007F916F915F914F913F912F910F900FBEF0
:100430000F901F9018950F931F93CF93DF9300D0C9
:10044000CDB7DEB78C0190937B0080937A00FC01DE
:1004500082819EEF980F9230B8F580B5806880BD9C
:1004600080B5806480BD8181813041F480B5806831
:1004700080BD90B58181892B80BD0AC08E3F41F43B
:1004800080B5806880BD90B5F8018181892380BDE9
:10049000F8016581768180E090E00E94F7059B017C
:1004A000AC010E94EA049B01AC0160E074E284EFBD
:1004B0009AE40E94560520E030E040E05FE30E94AD
:1004C000E9040E94C8054FC0811127C080B580682B
:1004D00080BD80B58F7B80BD8BB182608BB9F80108
:1004E0006581768180E090E00E94F70520E030E0B1
:1004F00040E051E40E9485069B01AC0160E074E29B
:1005000084EF9AE40E94560520E030E040E05FE38B
:100510000E94E9040E94C80526C080B5806880BD9D
:1005200080B58F7B80BD8BB18D7F8BB9F8016581E4
:10053000768180E090E00E94F70520E030E040E81E
:1005400051E40E9485069B01AC0160E074E284EFF7
:100550009AE40E94560520E030E040E05FE30E940C
:10056000E9040E94C805F8018381833011F128F461
:10057000813041F0823081F03CC0843039F18530E7
:1005800079F137C08AB18B7F8AB980B5806880BD28
:1005900080B5897F80BD2DC08AB18B7F8AB980B537
:1005A000806880BD80B5897F80BD80B5826080BD58
:1005B00020C08AB18B7F8AB980B5806880BD80B544
:1005C000897F80BD80B5846080BD13C08AB18B7F78
:1005D0008AB980B5806880BD80B5866080BD09C05D
:1005E0008AB184608AB980B5806880BD80B5866034
:1005F00080BDF8018481883051F0873F81F480B557
:10060000806880BD90B58481892380BD08C080B595
:10061000806880BD90B5F8018481892B80BDF80188
:1006200087818033B9F08F3C19F08032D9F409C04A
:1006300080B5806880BD90B5F8018781892380BD31
:1006400011C080B5806880BD90B5F8018781892B85
:1006500080BD08C080B5806880BD90B5F8018781F5
:10066000892B80BD80B58F7780BD70BD69B9F801D9
:100670008085813069F028F08230C1F0833021F12B
:1006800030C08AB18F718AB98FB78F778FBF29C079
:10069000F8018185928590938E0080938D008AB1B8
:1006A00080648AB98FB780688FBF1BC0F8018185CD
:1006B00092859093900080938F008AB180628AB96E
:1006C0008FB780688FBF0DC0F801818592859093A8
:1006D0009200809391008AB180688AB98FB7806850
:1006E0008FBFF80180819AB1892B8AB9E0917A0095
:1006F000F0917B008281823061F481E0898383E024
:100700008A83BE016F5F7F4F86E390E00E94BE0048
:100710000DC0833059F481E0898382E08A83BE0171
:100720006F5F7F4F86E390E00E94BE000F900F90B6
:10073000DF91CF911F910F910895611115C05F9BBB
:10074000FECFE0917A00F0917B002381253031F4D7
:100750002AB126952170FC01108221832CB130E052
:10076000FC013183208308955F9B12C0E0917A00E1
:10077000F0917B002381253031F42AB12695217038
:10078000FC01108221832CB130E0FC0131832083F5
:100790000895611117C05D9BFECFE0917A00F09142
:1007A0007B002381253051F42AB12E7F2AB9FC0128
:1007B0004081518150FF02C021602AB9FC01808133
:1007C0008CB908955D9B14C0E0917A00F0917B0094
:1007D0002381253051F42AB12E7F2AB9FC014081B2
:1007E000518150FF02C021602AB9FC0180818CB97F
:1007F00008951F93CF93DF93EC01162FE0917A00B9
:10080000F0917B008381843049F405C0612FCE01D3
:100810000E94C903219688818332C1F7DF91CF916D
:100820001F9108951F920F920FB60F9211242F93CC
:100830003F934F935F936F937F938F939F93AF9368
:10084000BF93EF93FF93E0919100F091920009958F
:10085000FF91EF91BF91AF919F918F917F916F9198
:100860005F914F913F912F910F900FBE0F901F906E
:1008700018951F920F920FB60F9211242F933F934A
:100880004F935F936F937F938F939F93AF93BF9398
:10089000EF93FF93E0918F00F09190000995FF9105
:1008A000EF91BF91AF919F918F917F916F915F91E8
:1008B0004F913F912F910F900FBE0F901F90189561
:1008C0001F920F920FB60F9211242F933F934F93C5
:1008D0005F936F937F938F939F93AF93BF93EF93A8
:1008E000FF93E0918D00F0918E000995FF91EF91BB
:1008F000BF91AF919F918F917F916F915F914F9138
:100900003F912F910F900FBE0F901F901895ECE71D
:10091000F0E020E835E2368325839EEF918391E075
:100920009283811107C083E0808785EB94E09287F2
:10093000818705C0ECE7F0E0108612861186ECE7AF
:10094000F0E088E1808384E0838387EF84838FEC09
:100950008783CF010E941B02089560E00E94F90383
:10096000089560E00E949D03089583E990E00E944D
:10097000B10480919300813359F441E061E086E352
:1009800090E00E94E60080E690E00E94AD040895A9
:10099000823351F440E061E086E390E00E94E6009B
:1009A00088E690E00E94AD040895CF93DF9300D0D5
:1009B000CDB7DEB781E0898383E08A83BE016F5FB4
:1009C0007F4F86E390E00E94BE0080E00E94870493
:1009D000FFCF5058BB27AA270E9401050C944B0655
:1009E0000E943D0638F00E94440620F039F49F3FF3
:1009F00019F426F40C943A060EF4E095E7FB0C94F7
:100A00003406E92F0E945C0658F3BA176207730791
:100A10008407950720F079F4A6F50C947E060EF471
:100A2000E0950B2EBA2FA02D0B01B90190010C01FE
:100A3000CA01A0011124FF27591B99F0593F50F416
:100A4000503E68F11A16F040A22F232F342F44276E
:100A5000585FF3CF469537952795A795F040539566
:100A6000C9F77EF41F16BA0B620B730B840BBAF036
:100A70009150A1F0FF0FBB1F661F771F881FC2F7A1
:100A80000EC0BA0F621F731F841F48F487957795B5
:100A90006795B795F7959E3F08F0B0CF9395880F6F
:100AA00008F09927EE0F9795879508950E946A059B
:100AB0000C944B060E94440658F00E943D0640F0FC
:100AC00029F45F3F29F00C94340651110C947F06F1
:100AD0000C943A060E945C0668F39923B1F35523FF
:100AE00091F3951B550BBB27AA2762177307840741
:100AF00038F09F5F5F4F220F331F441FAA1FA9F3D7
:100B000035D00E2E3AF0E0E832D091505040E695C4
:100B1000001CCAF72BD0FE2F29D0660F771F881F25
:100B2000BB1F261737074807AB07B0E809F0BB0B18
:100B3000802DBF01FF2793585F4F3AF09E3F51052C
:100B400078F00C9434060C947F065F3FE4F3983EF3
:100B5000D4F3869577956795B795F7959F5FC9F715
:100B6000880F911D9695879597F90895E1E0660F96
:100B7000771F881FBB1F621773078407BA0720F00F
:100B8000621B730B840BBA0BEE1F88F7E095089578
:100B90000E94640688F09F5798F0B92F9927B751A3
:100BA000B0F0E1F0660F771F881F991F1AF0BA9511
:100BB000C9F714C0B13091F00E947E06B1E00895EB
:100BC0000C947E06672F782F8827B85F39F0B93FDD
:100BD000CCF3869577956795B395D9F73EF49095C4
:100BE0008095709561957F4F8F4F9F4F0895E89442
:100BF00009C097FB3EF490958095709561957F4F65
:100C00008F4F9F4F9923A9F0F92F96E9BB27939512
:100C1000F695879577956795B795F111F8CFFAF422
:100C2000BB0F11F460FF1BC06F5F7F4F8F4F9F4F53
:100C300016C0882311F096E911C0772321F09EE8B1
:100C4000872F762F05C0662371F096E8862F70E017
:100C500060E02AF09A95660F771F881FDAF7880FF1
:100C60009695879597F9089597F99F6780E870E0C2
:100C700060E008959FEF80EC089500240A94161612
:100C8000170618060906089500240A94121613067A
:100C9000140605060895092E0394000C11F4882308
:100CA00052F0BB0F40F4BF2B11F460FF04C06F5F24
:100CB0007F4F8F4F9F4F089557FD9058440F551FFA
:100CC00059F05F3F71F04795880F97FB991F61F0CE
:100CD0009F3F79F087950895121613061406551F45
:100CE000F2CF4695F1DF08C0161617061806991FB1
:100CF000F1CF86957105610508940895E894BB27A6
:100D000066277727CB0197F908950E9498060C94DF
:100D10004B060E943D0638F00E94440620F09523C1
:100D200011F00C9434060C943A0611240C947F06AE
:100D30000E945C0670F3959FC1F3950F50E0551F1C
:100D4000629FF001729FBB27F00DB11D639FAA2720
:100D5000F00DB11DAA1F649F6627B00DA11D661F6F
:100D6000829F2227B00DA11D621F739FB00DA11D90
:100D7000621F839FA00D611D221F749F3327A00D4A
:100D8000611D231F849F600D211D822F762F6A2FE6
:100D900011249F5750409AF0F1F088234AF0EE0F4B
:100DA000FF1FBB1F661F771F881F91505040A9F778
:100DB0009E3F510580F00C9434060C947F065F3FF3
:100DC000E4F3983ED4F3869577956795B795F795B4
:100DD000E7959F5FC1F7FE2B880F911D969587952C
:080DE00097F90895F894FFCF84
:100DE8004C45445F4F4E23004C45445F4F464623D5
:020DF8000000F9
:00000001FF
