:100000000C9473000C9492000C94B9000C94E000D2
:100010000C949D070C9490000C9490000C9490000C
:100020000C94EE010C94C1120C9490000C94A70255
:100030000C9418020C947C040C94A3040C94CA0431
:100040000C9490000C9490000C9490000C9441013E
:100050000C94900027132713271327132713271314
:1000600060136013601360136013601360136013F8
:100070006013601360136013FE126013601360134B
:10008000FE1260136013601360136013FE1260139E
:100090006013601360136013FE12FE1260133A13B4
:1000A0003A133A134D136013601360136013601317
:1000B00060136013601360136013601360136013A8
:1000C0006013601360136013601360136013601398
:1000D00060136013601360136013601360133A13AE
:1000E0003A133A134D1311241FBECFE5D8E0DEBFFB
:1000F000CDBF11E0A0E6B0E0E2E9FFE202C005906A
:100100000D92AE30B107D9F725E0AEE0B1E001C005
:100110001D92A83DB207E1F70E94E6120C94C717A2
:100120000C9400001F920F920FB60F9211242F9380
:100130003F934F935F936F937F938F939F93AF936F
:10014000BF93EF93FF93E091B805F091B90509953E
:10015000FF91EF91BF91AF919F918F917F916F919F
:100160005F914F913F912F910F900FBE0F901F9075
:1001700018951F920F920FB60F9211242F933F9351
:100180004F935F936F937F938F939F93AF93BF939F
:10019000EF93FF93E091BA05F091BB050995FF91AC
:1001A000EF91BF91AF919F918F917F916F915F91EF
:1001B0004F913F912F910F900FBE0F901F90189568
:1001C0001F920F920FB60F9211242F933F934F93CC
:1001D0005F936F937F938F939F93AF93BF93EF93AF
:1001E000FF93E091BC05F091BD050995FF91EF915A
:1001F000BF91AF919F918F917F916F915F914F913F
:100200003F912F910F900FBE0F901F901895FC01FA
:10021000DB0111968C911197813059F48C91809566
:100220009181892381838C91809592818923828316
:100230000895823051F48C91809591818923818336
:100240008C919281892B828308958C919181892B45
:1002500081838C9180959281892382830895413096
:1002600029F4FC012281622B62830895411105C0AB
:100270006095FC012281622362830895FC01628300
:1002800008951F920F920FB60F9211242F933F9350
:100290004F935F936F937F938F939F93AF93BF938E
:1002A000EF93FF93E0910E01F0910F010480F5812F
:1002B000E02D0995FF91EF91BF91AF919F918F91A3
:1002C0007F916F915F914F913F912F910F900FBE52
:1002D0000F901F901895FF920F931F93CF93DF936A
:1002E00000D0CDB7DEB78C0190931101809310013F
:1002F000FC018081F82FF260FF2E882359F080E204
:10030000898383E08A83BE016F5F7F4F80E390E043
:100310000E940701F8018181F82A882359F080E1C1
:10032000898383E08A83BE016F5F7F4F80E390E023
:100330000E940701F801828188619381913039F42C
:1003400099B7946099BF9FB790689FBF06C099B74F
:100350009B7F99BF9FB79F779FBFF8019481913092
:1003600039F499B7906199BF9FB790689FBF06C055
:1003700099B79F7E99BF9FB79F779FBFF8019481E0
:10038000913039F499B7906199BF9FB790689FBF3A
:1003900006C099B7977F99BF9FB79F779FBFF80116
:1003A000938597BD928596BD918599BD908598BDA1
:1003B0009FB5F92AFFBC9EB5892B8EBD0F900F907B
:1003C000DF91CF911F910F91FF900895611103C0AC
:1003D0009BBD8ABD089599BD88BD08951F920F9257
:1003E0000FB60F9211242F933F934F935F936F9308
:1003F0007F938F939F93AF93BF93EF93FF93E0917E
:100400001001F09111010088F189E02D0995FF910B
:10041000EF91BF91AF919F918F917F916F915F917C
:100420004F913F912F910F900FBE0F901F901895F5
:100430001F920F920FB60F9211242F933F934F9359
:100440005F936F937F938F939F93AF93BF93EF933C
:10045000FF93E0911201F09113010780F085E02DE8
:100460000995FF91EF91BF91AF919F918F917F91EE
:100470006F915F914F913F912F910F900FBE0F9011
:100480001F901895FF920F931F93CF93DF9300D087
:10049000CDB7DEB78C018AE0F801AEEBB5E0019094
:1004A0000D928A95E1F7F801F0808281F82A818126
:1004B000882361F0F82A88E0898383E08A83BE017B
:1004C0006F5F7F4F86E390E00E940701F8019481FF
:1004D0008381892B95819CBF9481913039F499B7A0
:1004E000916099BF9FB790689FBF06C099B79E7FE4
:1004F00099BF9FB79F779FBFF8019381913039F4DF
:1005000099B7926099BF9FB790689FBF06C099B78F
:100510009D7F99BF9FB79F779FBFF3BE89BF0F9005
:100520000F90DF91CF911F910F91FF90089583B7A6
:10053000887F83BF83B78F7C83BF089583B785602F
:1005400083BF93B78091BF05892B83BF08951F9206
:100550000F920FB60F9211242F933F934F935F93F7
:100560006F937F938F939F93AF93BF93EF93FF937B
:10057000E091C405F091C5050995FF91EF91BF91F8
:10058000AF919F918F917F916F915F914F913F912B
:100590002F910F900FBE0F901F9018950F931F93E0
:1005A000CF93DF9300D0CDB7DEB78C0190931501C8
:1005B00080931401FC0182819EEF980F9230B8F570
:1005C00080B5806880BD80B5806480BD81818130C8
:1005D00041F480B5806880BD90B58181892B80BD54
:1005E0000AC08E3F41F480B5806880BD90B5F801A7
:1005F0008181892380BDF8016581768180E090E06A
:100600000E94BD169B01AC010E94B0159B01AC017C
:1006100060E074E284EF9AE40E941C1620E030E06F
:1006200040E05FE30E94AF150E948E164FC081111B
:1006300027C080B5806880BD80B58F7B80BD8BB1C1
:1006400082608BB9F8016581768180E090E00E943C
:10065000BD1620E030E040E051E40E944B179B01C2
:10066000AC0160E074E284EF9AE40E941C1620E082
:1006700030E040E05FE30E94AF150E948E1626C076
:1006800080B5806880BD80B58F7B80BD8BB18D7F4C
:100690008BB9F8016581768180E090E00E94BD16FB
:1006A00020E030E040E851E40E944B179B01AC0190
:1006B00060E074E284EF9AE40E941C1620E030E0CF
:1006C00040E05FE30E94AF150E948E16F80183811F
:1006D000833011F128F4813041F0823081F03CC048
:1006E000843039F1853079F137C08AB18B7F8AB98E
:1006F00080B5806880BD80B5897F80BD2DC08AB1FE
:100700008B7F8AB980B5806880BD80B5897F80BDC8
:1007100080B5826080BD20C08AB18B7F8AB980B5E8
:10072000806880BD80B5897F80BD80B5846080BDD4
:1007300013C08AB18B7F8AB980B5806880BD80B5CF
:10074000866080BD09C08AB184608AB980B580683E
:1007500080BD80B5866080BDF8018481883051F00D
:10076000873F81F480B5806880BD90B584818923FE
:1007700080BD08C080B5806880BD90B5F8018481D7
:10078000892B80BDF80187818033B9F08F3C19F047
:100790008032D9F409C080B5806880BD90B5F80179
:1007A0008781892380BD11C080B5806880BD90B5E8
:1007B000F8018781892B80BD08C080B5806880BD25
:1007C00090B5F8018781892B80BD80B58F7780BD7A
:1007D00070BD69B9F8018085813069F028F08230F8
:1007E000C1F0833021F130C08AB18F718AB98FB7DF
:1007F0008F778FBF29C0F801818592859093C905B5
:100800008093C8058AB180648AB98FB780688FBF2A
:100810001BC0F801818592859093CB058093CA0512
:100820008AB180628AB98FB780688FBF0DC0F80126
:10083000818592859093CD058093CC058AB180689F
:100840008AB98FB780688FBFF80180819AB1892BF0
:100850008AB9E0911401F09115018281823061F42E
:1008600081E0898383E08A83BE016F5F7F4F86E3E7
:1008700090E00E9407010DC0833059F481E0898324
:1008800082E08A83BE016F5F7F4F86E390E00E9423
:1008900007010F900F90DF91CF911F910F91089555
:1008A000611115C05F9BFECFE0911401F09115011D
:1008B0002381253031F42AB126952170FC01108264
:1008C00021832CB130E0FC013183208308955F9BAC
:1008D00012C0E0911401F09115012381253031F40B
:1008E0002AB126952170FC01108221832CB130E0C1
:1008F000FC013183208308951F920F920FB60F924F
:1009000011242F933F934F935F936F937F938F9314
:100910009F93AF93BF93EF93FF93E091CC05F0913A
:10092000CD050995FF91EF91BF91AF919F918F9167
:100930007F916F915F914F913F912F910F900FBEDB
:100940000F901F9018951F920F920FB60F921124BF
:100950002F933F934F935F936F937F938F939F93C7
:10096000AF93BF93EF93FF93E091CA05F091CB054E
:100970000995FF91EF91BF91AF919F918F917F91D9
:100980006F915F914F913F912F910F900FBE0F90FC
:100990001F9018951F920F920FB60F9211242F934C
:1009A0003F934F935F936F937F938F939F93AF93F7
:1009B000BF93EF93FF93E091C805F091C9050995A6
:1009C000FF91EF91BF91AF919F918F917F916F9127
:1009D0005F914F913F912F910F900FBE0F901F90FD
:1009E0001895EBE1F1E080E291E09183808313823E
:1009F0001282E7E1F1E087EE93E093838283118234
:100A00001082AFE1B1E014969C938E9313971296E7
:100A1000FC93EE93119708950F931F93CF93DF9359
:100A2000EC010E94BC0C80911601811105C00E944E
:100A3000F10481E080931601209709F02496CE01FD
:100A40000197863E934008F056C0E0911B01F0915B
:100A50001C01ABE1B1E002C0DF01FC0182819381A6
:100A60008C179D0720F4808191810097A9F781E080
:100A7000E731F80709F442C00D911C9111970C5F02
:100A80001F4F808191818D939C93828193818C1BD8
:100A90009D0B8930910510F1AF014C0F5D1FDA01FC
:100AA00013969C938E931297D383C28312962D91A3
:100AB0003C9113976BE171E001C0BD01EB01A8818E
:100AC000B98112968D919C91139782179307A8F381
:100AD000EA01B983A883DB014D935C9322813381C2
:100AE0008091600090916100821B930B9093610054
:100AF0008093600005C000E010E002C000E010E05C
:100B00000E947C0DC801DF91CF911F910F91089534
:100B10000F931F93CF93DF93009741F1EC018C016A
:100B2000045011090E94BC0CF80142815381ABE1D1
:100B3000B1E001C0DF01ED91FC9111972281338179
:100B400024173507B8F32497F983E8830D931C9392
:100B50008A819B812091600030916100820F931FF8
:100B600090936100809360000E947C0DDF91CF9193
:100B70001F910F910895FC010396928381832FEFBB
:100B80003FEF348323839683858390878783108206
:100B90000895FC01118610860895CF93DF939C0180
:100BA000FB01DC011196CD91DC911297D383C283B6
:100BB0008C819D81958384838C819D81DC0113963A
:100BC0007C936E9312977D836C8331872087F90124
:100BD00080818F5F8083DF91CF910895CF93DF93E2
:100BE000EB01488159814F3F2FEF520721F4FC015F
:100BF000A781B0850DC0DC01139601C0DF011296FC
:100C0000ED91FC9113972081318142175307B0F782
:100C10001296ED91FC911397FB83EA83D583C483ED
:100C2000BD83AC831396DC93CE9312979987888704
:100C3000FC0120812F5F2083DF91CF910895CF9316
:100C4000DF93FC01A085B185C281D3818481958128
:100C50009D838C83C481D581828193819B838A8388
:100C600011968D919C911297E817F90731F48481C0
:100C7000958112969C938E931197118610868C9174
:100C800081508C93DF91CF9108958CE783BD84E4EC
:100C900085BD89B7806889BF089531E1FC01308343
:100CA000319722E220833197A3E3A08331976083B9
:100CB0003197708331971082319760E86083319764
:100CC0001082319762E06083319763E060833197EF
:100CD00064E06083319765E06083319766E060830C
:100CE000319767E06083319768E06083319769E00E
:100CF0006083319760E1608331973083319732E1CF
:100D00003083319733E13083319734E13083319749
:100D100035E13083319736E13083319737E13083E5
:100D2000319738E13083319739E13083319730E2C0
:100D30003083319731E2308331972083319723E23A
:100D400020833197408331975083319726E2208367
:100D5000319727E22083319728E22083319729E2D7
:100D60002083319720E32083319721E320838697E6
:100D700008950E944506A0919805B0919905CD91DE
:100D8000CDBFDD91DEBFFF91EF91DF91CF91BF919C
:100D9000AF919F918F917F916F915F914F913F9113
:100DA0002F911F910F91FF90EF90DF90CF90BF9008
:100DB000AF909F908F907F906F905F904F903F90FB
:100DC0002F901F900F900FBE0F90089581E008950F
:100DD0000F920FB6F8940F921F9211242F923F9208
:100DE0004F925F926F927F928F929F92AF92BF923B
:100DF000CF92DF92EF92FF920F931F932F933F9327
:100E00004F935F936F937F938F939F93AF93BF9312
:100E1000CF93DF93EF93FF93A0919805B09199053D
:100E20000DB60D920EB60D920E94350EA09198054A
:100E3000B0919905CD91CDBFDD91DEBFFF91EF91CE
:100E4000DF91CF91BF91AF919F918F917F916F91E2
:100E50005F914F913F912F911F910F91FF90EF90D4
:100E6000DF90CF90BF90AF909F908F907F906F90CA
:100E70005F904F903F902F901F900F900FBE0F905C
:100E800008950F920FB6F8940F921F9211242F928B
:100E90003F924F925F926F927F928F929F92AF920A
:100EA000BF92CF92DF92EF92FF920F931F932F93F7
:100EB0003F934F935F936F937F938F939F93AF93E2
:100EC000BF93CF93DF93EF93FF93A0919805B091D9
:100ED00099050DB60D920EB60D920E94C20C8111AD
:100EE0000E94350EA0919805B0919905CD91CDBF86
:100EF000DD91DEBFFF91EF91DF91CF91BF91AF9177
:100F00009F918F917F916F915F914F913F912F9121
:100F10001F910F91FF90EF90DF90CF90BF90AF9017
:100F20009F908F907F906F905F904F903F902F9009
:100F30001F900F900FBE0F9008950E9441071895C3
:100F40000FB6F8940F92FC01828D811102C081E0EE
:100F500001C080E00F900FBE08950FB6F8940F9275
:100F6000FC01228D838D281302C081E001C080E046
:100F70000F900FBE08950F931F93CF93DF93EC0153
:100F8000042F1A8D4C8D41110CC088819981892BB9
:100F900009F042C08A819B810E948D0F1B821A82B8
:100FA00042C0011117C050E08C819D810E94BE1784
:100FB0002C8D8C819D81820F911D9D838C832A8134
:100FC0003B818217930750F1888199819D838C839F
:100FD00080E029C050E08E819F810E94BE178C8DD9
:100FE00090E09195819591092E813F81280F391FBD
:100FF0003F832E83488159812417350730F42A8195
:101000003B81820F931F9F838E83023049F411230B
:1010100049F0115080E007C080E005C080E003C0C7
:1010200080E001C080E01F5F1A8FDF91CF911F9198
:101030000F910895FC01448D4423A9F050E02681CE
:101040003781240F351F37832683828193812817A8
:10105000390720F08081918197838683CB01668157
:1010600077810E94BE1708951F93CF93DF93EC0101
:101070000FB6F8940F921E8D0BC08989882351F00A
:10108000CE0141960E949B0E81110E94270F1150A4
:1010900011169CF38FEF8E8F0F900FBE0FB6F89442
:1010A0000F921D8D0BC08885882351F0CE010896C4
:1010B0000E949B0E81110E94270F115011169CF364
:1010C0008FEF8D8F0F900FBEDF91CF911F910895FD
:1010D000CF93DF93EC010FB6F8940F92E881F9817A
:1010E0008B8D90E02C8D30E0829FA001839F500D6E
:1010F000929F500D11244E0F5F1F5B834A831A8EFF
:10110000FD83EC830197289FA001299F500D389FF4
:10111000500D1124CF01840F951F9F838E838FEF75
:101120008D8F8E8F61110CC08885882389F0CE0148
:1011300008960E949B0E882359F00E94E80608C07A
:10114000CE0108960E94BB05CE0141960E94BB05C8
:101150000F900FBE81E0DF91CF9108950F931F9301
:10116000F801611103C01183008302C051834083E1
:10117000838F648F61E0CF010E9468081F910F91F7
:101180000895DF92EF92FF920F931F93CF93DF9317
:10119000E82EF62ED42E662321F0869FC00111245E
:1011A00002C080E090E04F960E940C05EC01009791
:1011B00049F08C012D2DAC01415E5F4F6F2D8E2DBE
:1011C0000E94AE08CE01DF91CF911F910F91FF9049
:1011D000EF90DF900895CF92DF92EF92FF920F93FE
:1011E0001F93CF93DF9300D000D01F92CDB7DEB70F
:1011F0008C017B015D834C83C22ED12C0FB6F894F9
:101200000F92F801928D838D981718F0F2E0CF12AB
:1012100019C04C2DB701C8010E94BB07F801918984
:10122000992349F0C80141960E949B0E882331F012
:101230000E94E80603C081110E94E8060F900FBECD
:1012400081E04DC08C819D81892B21F40F900FBED0
:1012500080E045C0D11006C0CE0101960E94E30E89
:10126000DD24D3940F900FBE0E94BC0C0FB6F894EF
:101270000F92F801858D8F3F09F4158EF801868D48
:101280008F3F09F4168E0F900FBEBE016C5F7F4F2B
:10129000CE0101960E94EE0E81111BC0C8010E9472
:1012A000AD07882381F06C817D81C80108960E947A
:1012B000890EC8010E9434080E947C0D81119ECFC6
:1012C0000E94E8069BCFC8010E9434080E947C0D52
:1012D00095CFC8010E9434080E947C0D80E00F90D9
:1012E0000F900F900F900F90DF91CF911F910F9162
:1012F000FF90EF90DF90CF9008958F929F92BF92D2
:10130000CF92DF92EF92FF920F931F93CF93DF93D1
:1013100000D000D01F92CDB7DEB78C016B015D838A
:101320004C83B22EE12C0FB6F8940F92F801F28C98
:10133000FF2091F186809780B601C8010E941A08AB
:10134000B11019C0FA94F801F28E80819181892B35
:1013500029F40E94CD0FF80193838283F8018085E0
:101360008823B1F0C80108960E949B0E882381F063
:101370000E94E8060DC0F801978286828189882341
:1013800039F0C80141960E949B0E81110E94E80627
:101390000F900FBE81E061C08C819D81892B21F46B
:1013A0000F900FBE80E059C0E11006C0CE0101963B
:1013B0000E94E30EEE24E3940F900FBE0E94BC0C3B
:1013C0000FB6F8940F92F801858D8F3F09F4158EB2
:1013D000F801868D8F3F09F4168E0F900FBEBE0167
:1013E0006C5F7F4FCE0101960E94EE0E811129C0E5
:1013F000C8010E94A0078823F1F0F8018081918143
:10140000892B49F40FB6F8940F92828193810E9440
:101410002B0F0F900FBE6C817D81C80141960E94F9
:10142000890EC8010E9434080E947C0D81117BCF77
:101430000E94E80678CFC8010E9434080E947C0D03
:1014400072CFC8010E9434080E947C0DC8010E941E
:10145000A007882309F467CF80E00F900F900F90CA
:101460000F900F90DF91CF911F910F91FF90EF9010
:10147000DF90CF90BF909F908F900895E0913305BB
:10148000F09134058081811107C08FEF9FEF909319
:101490000B0580930A050895E0913305F09134051A
:1014A0000580F681E02D0680F781E02D8281938111
:1014B00090930B0580930A050895CF93DF93EC0179
:1014C0008F89988D0E948805CE010E948805DF9142
:1014D000CF9108956F927F928F929F92AF92BF9219
:1014E000CF92DF92EF920F931F93CF93DF93CDB7FD
:1014F000DEB74C01F5018789908D215031093C01FF
:10150000620E731E20E00FC0822F90E0FB01E80FF7
:10151000F91F3081D501A80FB91F59963C938081DE
:10152000882319F02F5F283078F3F50110A2F8E036
:10153000FE1518F46894EE24E3F8F501E68AE1A2BA
:1015400012A2C50102960E94C905C5010C960E940F
:10155000C905F501B186A08689E090E08E19910950
:1015600095878487B38AA28A13A214A215A216A211
:1015700017A2A801B401C3010E944D06F501918391
:101580008083C114D10419F0F601B182A082DF91E9
:10159000CF911F910F91EF90DF90CF90BF90AF90C0
:1015A0009F908F907F906F900895CF93C0E010C070
:1015B0008C2F90E09C01220F331F220F331F220F2C
:1015C000331F820F931F895B9A4F0E94BB05CF5F29
:1015D000C93070F38EE395E00E94BB0585E395E08A
:1015E0000E94BB0588E295E00E94BB058FE195E073
:1015F0000E94BB0585E195E00E94BB058EE395E066
:10160000909334058093330585E395E090933205FC
:1016100080933105CF910895CF93DF93EC010FB6FE
:10162000F8940F92809114058F5F80931405809138
:10163000980590919905892B59F4D0939905C093F9
:10164000980580911405813099F40E94D50A10C044
:101650008091100581110CC0E0919805F0919905D9
:1016600096898E89891720F0D0939905C0939805A3
:1016700080910C058F5F80930C058E8990911105E8
:10168000981710F48093110590E09C01220F331FEE
:10169000220F331F220F331F820F931FBE016E5F75
:1016A0007F4F895B9A4F0E94CD050F900FBE8091AE
:1016B0001005882351F0E0919805F09199059689DD
:1016C0008E89981710F40E94E806DF91CF91089553
:1016D000FF920F931F93CF93DF93EC01F62E0091AF
:1016E0001205109113058091980590919905029625
:1016F0000E941F06CF3F8FEFD80769F4FF2059F0F3
:1017000060919805709199056E5F7F4F85E195E036
:101710000E94CD052FC0C00FD11FE0919805F09118
:101720009905D383C283C017D10768F460919805E7
:101730007091990580913105909132056E5F7F4FD0
:101740000E94EE0517C060919805709199058091EF
:101750003305909134056E5F7F4F0E94EE058091B6
:101760000A0590910B05C817D90720F4D0930B05F3
:10177000C0930A05DF91CF911F910F91FF900895BB
:101780002F923F924F925F926F927F928F929F9291
:10179000AF92BF92CF92DF92EF92FF920F931F937F
:1017A000CF93DF933C011B015A012901CA010E941A
:1017B0000C056C01892B71F088E290E00E940C0509
:1017C000EC01892B19F0D88ECF8A06C0C6010E9481
:1017D000880502C0C0E0D0E0209791F0950140E07C
:1017E00050E0812C912C5E016701E02E8201B10155
:1017F000C3010E946A0ACE010E940C0B81E001C065
:101800008FEFDF91CF911F910F91FF90EF90DF90BD
:10181000CF90BF90AF909F908F907F906F905F9090
:101820004F903F902F900895EF92FF921F93CF9388
:10183000DF93EC01693008F068E00FB6F8940F927E
:10184000209721F4C0919805D091990599A1691725
:1018500009F460C0961780F420919805309199059D
:10186000C217D30791F0E0919805F0919905868908
:10187000681768F410E00EC0209198053091990522
:10188000C217D30731F010E005C010E003C011E02B
:1018900001C011E08E89981301C06E8B69A32C855D
:1018A0003D85332334F029E030E0261B31093D87A4
:1018B0002C872A853B8590E0AC01440F551F440FCF
:1018C000551F440F551F840F951F895B9A4F28178A
:1018D0003907E9F47E0182E0E80EF11CC7010E949D
:1018E0001F068E8990911105981710F480931105A9
:1018F00090E09C01220F331F220F331F220F331F52
:10190000820F931FB701895B9A4F0E94CD05111179
:101910000E94E8060F900FBEDF91CF911F91FF90BC
:10192000EF900895EF92FF920F930F2EF8E0EF2EB5
:10193000F5E0FF2EF02D00E020E030E040E550E043
:101940006DE670E082E39EE00E94C00B813081F47E
:10195000F8948FEF9FEF90930B0580930A0581E039
:101960008093100510921305109212050E94B9067B
:101970000F91FF90EF900895809107058F5F8093FE
:1019800007050895DF92EF92FF920F931F93CF9375
:10199000DF9380910705811197C0E0901205F090C8
:1019A00013058FEFE81AF80AF0921305E09212057A
:1019B000E114F104B9F4809133059091340520913C
:1019C00031053091320530933405209333059093DF
:1019D00032058093310580910D058F5F80930D0551
:1019E0000E943E0A80910A0590910B05E816F906BF
:1019F00028F4D12C53C0DD24D39401C0D12CE09124
:101A00003305F09134058081811107C08FEF9FEF7E
:101A100090930B0580930A0541C0E0913305F09146
:101A200034050580F681E02DC681D7818A819B81AE
:101A3000E816F90628F490930B0580930A052EC04A
:101A40008E010E5F1F4FC8010E941F068C899D8961
:101A5000892B21F0CE010C960E941F068E89909151
:101A60001105981710F48093110590E09C01220F46
:101A7000331F220F331F220F331F820F931FB80112
:101A8000895B9A4F0E94CD059E89E0919805F0915F
:101A900099058689981708F0AECFB1CFE0919805E7
:101AA000F0919905868990E0FC01EE0FFF1FEE0F83
:101AB000FF1FEE0FFF1F8E0F9F1FFC01E95BFA4F08
:101AC0008081823040F409C080910F058F5F809340
:101AD0000F05D12C02C0DD24D39480910E058823FC
:101AE00011F0DD24D3948D2DDF91CF911F910F91B3
:101AF000FF90EF90DF9008950F931F93CF93DF93A4
:101B00000FB6F8940F9280910705815080930705D6
:101B100080910705811158C080911405811133C04F
:101B200056C0E0912D05F0912E05C681D781CE01DA
:101B30000C960E941F068E010E5F1F4FC8010E9467
:101B40001F068E8990911105981710F48093110546
:101B500090E09C01220F331F220F331F220F331FEF
:101B6000820F931FB801895B9A4F0E94CD059E8911
:101B7000E0919805F09199058689981730F081E0F9
:101B800080930E0502C0C0E0D0E08091280581114D
:101B9000C8CFCD2B11F00E943E0AC0910F05CC2377
:101BA00059F00E94C20C882319F081E080930E0541
:101BB000C150B9F710920F0580910E05882331F0BE
:101BC0000E94E80681E003C080E001C080E00F9041
:101BD0000FBEDF91CF911F910F910895CF93DF93A7
:101BE000EC01892B49F00E94BC0C60E0CE010E9400
:101BF000680B0E947C0D01C080E0811102C00E9430
:101C0000E806DF91CF910895CF93DF9324C00E941F
:101C1000BC0CC0911F050E947C0DCC23E1F00FB6D7
:101C2000F8940F92E0912405F0912505C681D781A3
:101C3000CE0102960E941F06809114058150809368
:101C4000140580911E05815080931E050F900FBED4
:101C5000CE010E945D0A80911E058111D8CFDF91CF
:101C6000CF9108950E94040EFDCF8091070588232F
:101C700021F081E080930E05089510920E052091C9
:101C8000110501C02150822F90E0FC01EE0FFF1FD3
:101C9000EE0FFF1FEE0FFF1FE80FF91FE95BFA4F72
:101CA0003081332379F3AC01440F551F440F551F86
:101CB000440F551F480F591FDF010180F281E02DAD
:101CC0000280F381E02D1296FC93EE931197465B10
:101CD0005A4FE417F50729F442815381FD015283DD
:101CE0004183FC01EE0FFF1FEE0FFF1FEE0FFF1FE2
:101CF0008E0F9F1FFC01E95BFA4F0180F281E02DFE
:101D0000868197819093990580939805209311057A
:101D10000895CF93DF93EB01609198057091990539
:101D2000645F7F4F0E94EE0561E0CE010E94680B68
:101D3000DF91CF9108950F931F93CF93DF93DC0131
:101D40001596ED91FC911697C681D7818E01045F9F
:101D50001F4FC8010E941F068091070581111CC0FA
:101D60000A501109C8010E941F068E899091110521
:101D7000981710F48093110590E09C01220F331FF7
:101D8000220F331F220F331F820F931FB801895B6D
:101D90009A4F0E94CD0505C0B80188E295E00E94E7
:101DA000CD059E89E0919805F0919905868989175E
:101DB00020F481E080930E0501C080E0DF91CF9197
:101DC0001F910F91089520910D05FC012083209112
:101DD0001205309113053283218308950FB6F894CC
:101DE0000F924091120550911305DB012D913C910A
:101DF0002F3FBFEF3B0719F1DC01FC91E0910D058E
:101E0000FE1739F01196ED91FC9112974E175F076E
:101E1000C0F4DC011196ED91FC911297DA01AE1B32
:101E2000BF0BA217B30778F4DB01E41BF50B2E0FF1
:101E30003F1F2D933C930E94E30E80E005C080E09D
:101E400003C081E001C081E00F900FBE089581E0E2
:101E500080930E0508950F931F93CF93DF93FC019A
:101E6000892B09F455C02689A0919805B091990550
:101E700056968C91281708F04BC084859585992338
:101E800064F0A0919805B091990556963C9189E02F
:101E900090E0831B9109958784878285938530E044
:101EA000A901440F551F440F551F440F551F240F00
:101EB000351F295B3A4F8217930719F58F01EF0100
:101EC0002296CE010E941F06E0919805F091990597
:101ED0008689F801868B90911105981710F48093EC
:101EE000110590E09C01220F331F220F331F220F98
:101EF000331F820F931FBE01895B9A4F0E94CD054D
:101F000007C0A0919805B091990556968C91868B43
:101F1000DF91CF911F910F9108950F931F93CF934E
:101F2000DF93FC01892B79F182A1815082A326895C
:101F300091A1291751F181112AC0EF018F010E5F84
:101F40001F4FC8010E941F0689A18E8B29E030E037
:101F5000281B31093D872C8790911105981710F4A3
:101F60008093110590E09C01220F331F220F331F35
:101F7000220F331F820F931FB801895B9A4F0E9473
:101F8000CD0581E005C080E003C080E001C080E0B5
:101F9000DF91CF911F910F910895809198059091B5
:101FA0009905892B39F0E0919805F091990582A166
:101FB0008F5F82A3809198059091990508951F9352
:101FC000CF93DF9300D0CDB7DEB782E0898313E0F3
:101FD0001A83BE016F5F7F4F89E390E00E94070183
:101FE00084E089831A83BE016F5F7F4F89E390E0AD
:101FF0000E94070188E089831A83BE016F5F7F4FCB
:1020000089E390E00E94070180E189831A83BE0181
:102010006F5F7F4F89E390E00E94070180E2898330
:102020001A83BE016F5F7F4F89E390E00E94070132
:1020300080E489831A83BE016F5F7F4F89E390E05C
:102040000E94070180E889831A83BE016F5F7F4F7A
:1020500089E390E00E9407010F900F90DF91CF91EC
:102060001F910895E82FF0E0EE59FF4F608189E35A
:1020700090E00E943E010895CF93DF93CDB7DEB785
:1020800062970FB6F894DEBF0FBECDBF1A861986D1
:1020900018861F82198280E28A8383E08B8383EC17
:1020A00099E09C878B871D821E821C82188A1F865E
:1020B0001A8A198A1E861D86CE0101960E946B011E
:1020C0008B859C85019690939B0580939A056296DB
:1020D0000FB6F894DEBF0FBECDBFDF91CF9108954C
:1020E00061E024EF31E0482F429FC001439F900DF3
:1020F00011240E94E601089541E060E183E390E04D
:102100000E942F0140E060E283E390E00E942F01F3
:1021100040E060E483E390E00E942F0141E060E84A
:1021200083E390E00E942F01089540E060E183E3A3
:1021300090E00E942F0141E060E283E390E00E9482
:102140002F0141E060E483E390E00E942F0140E032
:1021500060E883E390E00E942F01089540E060E191
:1021600083E390E00E942F0140E060E283E390E08F
:102170000E942F0140E060E483E390E00E942F0181
:1021800040E060E883E390E00E942F01089540E082
:1021900060E183E390E00E942F0141E060E283E38D
:1021A00090E00E942F0140E060E483E390E00E9411
:1021B0002F0141E060E883E390E00E942F01089541
:1021C00041E060E183E390E00E942F0140E060E2A3
:1021D00083E390E00E942F0141E060E483E390E01C
:1021E0000E942F0140E060E883E390E00E942F010D
:1021F00008950895ECE9F5E020E835E2368325837B
:102200009EEF918391E09283811107C083E08087E4
:1022100089EF90E19287818705C0ECE9F5E01086AF
:1022200012861186ECE9F5E088E1808384E08383FF
:1022300087EF84838FEC8783CF010E94CE020895BD
:1022400060E00E9450040895CF93C82F682F607FEC
:1022500086E390E00E943E0140E062E086E390E089
:102260000E942F0140E061E086E390E00E942F0190
:1022700041E064E086E390E00E942F0182E08A95CD
:10228000F1F700C040E064E086E390E00E942F0197
:102290008FE891E00197F1F700C0000090E1C99F3D
:1022A000B001112486E390E00E943E0140E062E02C
:1022B00086E390E00E942F0140E061E086E390E039
:1022C0000E942F0141E064E086E390E00E942F012C
:1022D00082E08A95F1F700C040E064E086E390E098
:1022E0000E942F018FE99FE00197F1F700C00000E5
:1022F000CF910895EF92FF920F931F93CF93DF93A7
:1023000000D0CDB7DEB713E01A8301E00983BE0128
:102310006F5F7F4F86E390E00E9407011A83689405
:10232000FF24F1F8F982BE016F5F7F4F86E390E0F2
:102330000E9407011A836894EE24E2F8E982BE0144
:102340006F5F7F4F86E390E00E9407011A8388E069
:102350008983BE016F5F7F4F86E390E00E94070193
:102360001A8380E18983BE016F5F7F4F86E390E02F
:102370000E9407011A8380E28983BE016F5F7F4F4D
:1023800086E390E00E9407011A8380E48983BE01FE
:102390006F5F7F4F86E390E00E9407011A8380E819
:1023A0008983BE016F5F7F4F86E390E00E94070143
:1023B0001A83E982BE016F5F7F4F86E390E00E943F
:1023C00007011A83F982BE016F5F7F4F86E390E0B9
:1023D0000E9407011A830983BE016F5F7F4F86E366
:1023E00090E00E9407018FE39CE90197F1F700C09C
:1023F000000082E00E94241188E20E94241186E0FD
:102400000E94241180E80E9424118CE00E94241173
:1024100081E00E9424118FE99FE00197F1F700C04D
:1024200000000F900F90DF91CF911F910F91FF90BF
:10243000EF90089581E00E9424118FE99FE00197B9
:10244000F1F700C0000080E80E9424110895811176
:1024500007C0603168F480E8860F0E942411089557
:10246000813031F4603120F480EC860F0E94241119
:102470000895CF93C82F682F607F86E390E00E9475
:102480003E0141E062E086E390E00E942F0140E0DF
:1024900061E086E390E00E942F0141E064E086E382
:1024A00090E00E942F0182E08A95F1F700C040E0A1
:1024B00064E086E390E00E942F018FE891E00197AD
:1024C000F1F700C0000090E1C99FB001112486E33C
:1024D00090E00E943E0141E062E086E390E00E94CD
:1024E0002F0140E061E086E390E00E942F0141E08F
:1024F00064E086E390E00E942F0182E08A95F1F784
:1025000000C040E064E086E390E00E942F018FE984
:102510009FE00197F1F700C00000CF9108950F935D
:102520001F93CF93DF938C01C0E0D0E021C02196B0
:102530000F5F1F4F0E943912C031D10529F460E0AE
:1025400081E00E94271214C0C032D10589F42FEF18
:1025500084E39CE0215080409040E1F700C00000FF
:102560000E941A1260E080E00E942712C0E0D0E0D2
:10257000F80180818111DBCFDF91CF911F910F9105
:1025800008951F920F920FB60F9211248F939F936D
:10259000AF93BF938091A7059091A805A091A9053D
:1025A000B091AA050196A11DB11D8093A705909336
:1025B000A805A093A905B093AA05BF91AF919F91DB
:1025C0008F910F900FBE0F901F9018950E941515B8
:1025D0000E94920CFFCFC0E087EB95E00E94201193
:1025E0002091B705822F90E0FC01F097E934F105C6
:1025F00008F066C0E65DFF4F0C94B817C21791F063
:1026000020E040E050E060E070E08091D0059091E3
:10261000D1050E94EB0862E08091AF059091B00572
:102620000E94140CC091B70520E040E050E060E04B
:1026300070E08091CE059091CF050E94EB0862E09A
:102640008091B3059091B4050E94140C3DC020E028
:1026500040E050E060E070E08091D4059091D505B5
:102660000E94EB0862E08091B1059091B2050E9452
:10267000140C2AC020E040E050E060E070E080915F
:10268000D6059091D7050E94EB0862E08091AD05D8
:102690009091AE050E94140C17C020E040E050E07D
:1026A00060E070E08091D2059091D3050E94EB0824
:1026B00062E08091AB059091AC050E94140C04C0BF
:1026C0008AE090E00E94EE0D8AE090E00E94EE0D1C
:1026D00083CF20E040E050E060E070E08091D205E0
:1026E0009091D3050E947D09882359F08091B70508
:1026F000883519F40E949E0204C0883711F40E94A4
:10270000970261E08091AB059091AC050E94140C9A
:1027100085E090E00E94EE0DDCCF20E040E050E04C
:1027200060E070E08091D6059091D7050E947D0908
:102730008823B9F18091B705863539F441E068E026
:1027400083E390E00E942F012CC0863739F440E0EB
:1027500068E083E390E00E942F0123C0873539F4BD
:1027600041E062E083E390E00E942F011AC08737C6
:1027700039F440E062E083E390E00E942F0111C051
:10278000853539F441E064E083E390E00E942F0155
:1027900008C0853731F440E064E083E390E00E94B4
:1027A0002F0161E08091AD059091AE050E94140C5F
:1027B00085E090E00E94EE0DB0CF20E040E050E0D8
:1027C00060E070E08091D0059091D1050E947D0974
:1027D000882371F18091B705823439F40E941A126E
:1027E00082E790E00E948F1223C0863439F40E9461
:1027F0001A1287E790E00E948F121AC0823539F4CE
:102800000E941A128FE790E00E948F1211C08C3440
:1028100039F40E941A1285E890E00E948F1208C0D5
:10282000833531F40E941A128AE890E00E948F12D8
:1028300061E08091AF059091B0050E94140C85E095
:1028400090E00E94EE0DB9CF8091B705C0EDC80FA2
:1028500020E040E050E060E070E08091D40590918D
:10286000D5050E947D09882339F08C2F90E00E94C5
:1028700032108C2F0E94701061E08091B105909110
:10288000B2050E94140C87E090E00E94EE0DDCCFB0
:1028900020E040E050E060E070E08091CE05909153
:1028A000CF050E947D09882379F18091B705823494
:1028B00019F40E94E01028C0863419F40E94C71051
:1028C00023C0823551F481E00E94701081E090E0D5
:1028D0000E9432100E947C1017C08C3451F481E0A9
:1028E0000E94701081E090E00E9432100E949510CA
:1028F0000BC0833549F480E00E94701080E090E0C6
:102900000E9432100E94AE1061E08091B305909158
:10291000B4050E94140C85E090E00E94EE0DB8CF43
:102920000F931F93CF93DF9300D0CDB7DEB782E034
:10293000898313E01A83BE016F5F7F4F83E390E0CA
:102940000E94070184E089831A83BE016F5F7F4F75
:1029500083E390E00E94070188E089831A83BE0127
:102960006F5F7F4F83E390E00E94070100E10983DE
:102970001A83BE016F5F7F4F83E390E00E940701DF
:1029800080E289831A83BE016F5F7F4F83E390E00B
:102990000E94070180E489831A83BE016F5F7F4F25
:1029A00083E390E00E94070180E889831A83BE01D7
:1029B0006F5F7F4F83E390E00E94070109831A83D2
:1029C000BE016F5F7F4F80E390E00E9407010F9090
:1029D0000F90DF91CF911F910F910895CF93DF93C7
:1029E000CDB7DEB72A970FB6F894DEBF0FBECDBFC6
:1029F00080E489831D821C8218861F821A861986AC
:102A000080E18A838FEF8E8385E08B83CE010196F0
:102A10000E9442020E9497022A960FB6F894DEBFE7
:102A20000FBECDBFDF91CF910895EF92FF920F932C
:102A30000E9490140E94EE140E94DF0F0E947A11EF
:102A40000E943C1081E00E94701081E00E94FA1008
:102A5000E090B505F090B60502E020E030E040E4FB
:102A600050E06FE870E08BEE92E10E94C00BE090C6
:102A7000B305F090B40501E020E030E040E450E020
:102A80006CEA70E088E494E10E94C00BE090B1052C
:102A9000F090B20520E030E040E450E069EB70E0F7
:102AA00084E294E10E94C00BE090AF05F090B00585
:102AB00020E030E040E450E065EC70E08DED93E123
:102AC0000E94C00BE090AD05F090AE0520E030E034
:102AD00040E450E068ED70E08DE893E10E94C00BA7
:102AE000E090AB05F090AC0520E030E040E450E031
:102AF00067EF70E089E693E10E94C00B43E060E07D
:102B000081E00E94C1089093CF058093CE0543E0F9
:102B100060E081E00E94C1089093D5058093D405C0
:102B200043E060E081E00E94C1089093D10580936A
:102B3000D00543E060E081E00E94C1089093D70592
:102B40008093D60543E060E081E00E94C108909345
:102B5000D3058093D2050F91FF90EF9008955058C0
:102B6000BB27AA270E94C7150C9411170E940317B0
:102B700038F00E940A1720F039F49F3F19F426F428
:102B80000C9400170EF4E095E7FB0C94FA16E92F6D
:102B90000E94221758F3BA17620773078407950734
:102BA00020F079F4A6F50C9444170EF4E0950B2E62
:102BB000BA2FA02D0B01B90190010C01CA01A0018F
:102BC0001124FF27591B99F0593F50F4503E68F1EA
:102BD0001A16F040A22F232F342F4427585FF3CF2B
:102BE000469537952795A795F0405395C9F77EF4FC
:102BF0001F16BA0B620B730B840BBAF09150A1F045
:102C0000FF0FBB1F661F771F881FC2F70EC0BA0FCA
:102C1000621F731F841F48F4879577956795B79552
:102C2000F7959E3F08F0B0CF9395880F08F099274D
:102C3000EE0F9795879508950E9430160C94111702
:102C40000E940A1758F00E94031740F029F45F3FD2
:102C500029F00C94FA1651110C9445170C94001796
:102C60000E94221768F39923B1F3552391F3951B22
:102C7000550BBB27AA2762177307840738F09F5F9D
:102C80005F4F220F331F441FAA1FA9F335D00E2E0A
:102C90003AF0E0E832D091505040E695001CCAF777
:102CA0002BD0FE2F29D0660F771F881FBB1F26173A
:102CB00037074807AB07B0E809F0BB0B802DBF0111
:102CC000FF2793585F4F3AF09E3F510578F00C94E0
:102CD000FA160C9445175F3FE4F3983ED4F38695BB
:102CE00077956795B795F7959F5FC9F7880F911D01
:102CF0009695879597F90895E1E0660F771F881FED
:102D0000BB1F621773078407BA0720F0621B730B9F
:102D1000840BBA0BEE1F88F7E09508950E942A17DE
:102D200088F09F5798F0B92F9927B751B0F0E1F08C
:102D3000660F771F881F991F1AF0BA95C9F714C03C
:102D4000B13091F00E944417B1E008950C944417FB
:102D5000672F782F8827B85F39F0B93FCCF3869575
:102D600077956795B395D9F73EF4909580957095D2
:102D700061957F4F8F4F9F4F0895E89409C097FB4F
:102D80003EF490958095709561957F4F8F4F9F4F42
:102D90009923A9F0F92F96E9BB279395F695879586
:102DA00077956795B795F111F8CFFAF4BB0F11F449
:102DB00060FF1BC06F5F7F4F8F4F9F4F16C08823F0
:102DC00011F096E911C0772321F09EE8872F762F26
:102DD00005C0662371F096E8862F70E060E02AF067
:102DE0009A95660F771F881FDAF7880F9695879553
:102DF00097F9089597F99F6780E870E060E008957B
:102E00009FEF80EC089500240A9416161706180602
:102E10000906089500240A941216130614060506DE
:102E20000895092E0394000C11F4882352F0BB0F6F
:102E300040F4BF2B11F460FF04C06F5F7F4F8F4FD2
:102E40009F4F089557FD9058440F551F59F05F3F0D
:102E500071F04795880F97FB991F61F09F3F79F0BC
:102E600087950895121613061406551FF2CF46953E
:102E7000F1DF08C0161617061806991FF1CF8695C0
:102E80007105610508940895E894BB2766277727A4
:102E9000CB0197F908950E945E170C9411170E94B8
:102EA000031738F00E940A1720F0952311F00C94B4
:102EB000FA160C94001711240C9445170E9422173F
:102EC00070F3959FC1F3950F50E0551F629FF0017D
:102ED000729FBB27F00DB11D639FAA27F00DB11D96
:102EE000AA1F649F6627B00DA11D661F829F22271F
:102EF000B00DA11D621F739FB00DA11D621F839FA6
:102F0000A00D611D221F749F3327A00D611D231F7B
:102F1000849F600D211D822F762F6A2F11249F57C9
:102F200050409AF0F1F088234AF0EE0FFF1FBB1FCC
:102F3000661F771F881F91505040A9F79E3F51058B
:102F400080F00C94FA160C9445175F3FE4F3983E1A
:102F5000D4F3869577956795B795F795E7959F5F35
:102F6000C1F7FE2B880F911D9695879597F90895C7
:102F7000EE0FFF1F0590F491E02D0994FB01DC0199
:102F800002C001900D9241505040D8F70895F89436
:022F9000FFCF71
:102F9200E7037E60B69ECCDAFA0EFEDE0049444CB0
:102FA20045004241434B00464F5257415244005262
:102FB20049474854004C4946540053544F5000432B
:102FC2004D442052582046524F4D20426C75657434
:102FD2006F6F7468204D6F64756C65004D6F74651A
:102FE200725F537461746573004D6F7465725F53E1
:102FF20070656564005072696E7420537461746503
:10300200206F6E204C434400547261666669635FB0
:10301200537461746520536F756E6420616E642011
:103022006C696768747300547261666669632073C1
:0E30320069676E616C206C69676874730000DA
:00000001FF
