:100000000C942A000C9449000C9470000C949700F6
:100010000C9447000C9447000C9447000C94470044
:100020000C9447000C9447000C9447000C94470034
:100030000C9447000C94FE000C9425010C944C0188
:100040000C9447000C9447000C9447000C94470014
:100050000C94470011241FBECFE5D8E0DEBFCDBF12
:1000600010E0A0E6B0E0ECEAF8E002C005900D92E6
:10007000AC37B107D9F720E0ACE7B0E001C01D9282
:10008000AA39B207E1F70E9485030C9454040C943A
:1000900000001F920F920FB60F9211242F933F93DF
:1000A0004F935F936F937F938F939F93AF93BF9380
:1000B000EF93FF93E0917D00F0917E000995FF9111
:1000C000EF91BF91AF919F918F917F916F915F91D0
:1000D0004F913F912F910F900FBE0F901F90189549
:1000E0001F920F920FB60F9211242F933F934F93AD
:1000F0005F936F937F938F939F93AF93BF93EF9390
:10010000FF93E0917F00F09180000995FF91EF91BE
:10011000BF91AF919F918F917F916F915F914F911F
:100120003F912F910F900FBE0F901F9018951F9227
:100130000F920FB60F9211242F933F934F935F931B
:100140006F937F938F939F93AF93BF93EF93FF939F
:10015000E0918100F09182000995FF91EF91BF91AC
:10016000AF919F918F917F916F915F914F913F914F
:100170002F910F900FBE0F901F901895FC01DB017F
:1001800011968C911197813059F48C9180959181C1
:10019000892381838C91809592818923828308951C
:1001A000823051F48C9180959181892381838C9147
:1001B0009281892B828308958C919181892B8183EF
:1001C0008C9180959281892382830895FC0180819E
:1001D000862309F081E00895413029F4FC01228151
:1001E000622B62830895411105C06095FC01228154
:1001F000622362830895FC01628308951F920F9227
:100200000FB60F9211242F933F934F935F936F93E9
:100210007F938F939F93AF93BF93EF93FF93E0915F
:100220008700F09188000995FF91EF91BF91AF9100
:100230009F918F917F916F915F914F913F912F91FE
:100240000F900FBE0F901F9018951F920F920FB630
:100250000F9211242F933F934F935F936F937F934C
:100260008F939F93AF93BF93EF93FF93E09185009C
:10027000F09186000995FF91EF91BF91AF919F9109
:100280008F917F916F915F914F913F912F910F903F
:100290000FBE0F901F9018951F920F920FB60F92DE
:1002A00011242F933F934F935F936F937F938F937B
:1002B0009F93AF93BF93EF93FF93E0918300F091EF
:1002C00084000995FF91EF91BF91AF919F918F911C
:1002D0007F916F915F914F913F912F910F900FBE42
:1002E0000F901F901895E9E8F0E080E4808383E0A8
:1002F0008183BF0180E390E00E94BE0040E060E4A3
:1003000080E390E00E94EC002FEF89EF90E0215015
:1003100080409040E1F700C0000041E060E480E3ED
:1003200090E00E94EC000895E9E8F0E080E480832A
:1003300081E08183BF0180E390E00E94BE0060E421
:1003400080E390E00E94E6008111F9CF60E480E351
:1003500090E00E94E6008823C9F360E480E390E027
:100360000E94E6008111F9CF0895CF93C0E027C025
:1003700060E480E390E00E94E6008823C9F380EA0D
:100380008A95F1F760E480E390E00E94E60088231C
:1003900049F080917C0090E0880F991F81608093E4
:1003A0007C0005C080917C00880F80937C0060E415
:1003B00080E390E00E94E6008111F9CFCF5FC83062
:1003C000B8F280917C00CF910895CF93C82F682F09
:1003D000607F89E390E00E94FB0040E062E086E3FA
:1003E00090E00E94EC0040E068E086E390E00E942C
:1003F000EC0041E064E086E390E00E94EC0085E0E0
:100400008A95F1F7000040E064E086E390E00E9406
:10041000EC008FE193E00197F1F700C0000090E15C
:10042000C99FB001112489E390E00E94FB0040E0E5
:1004300062E086E390E00E94EC0040E068E086E342
:1004400090E00E94EC0041E064E086E390E00E94CE
:10045000EC0085E08A95F1F7000040E064E086E377
:1004600090E00E94EC008FE39FE10197F1F700C05C
:100470000000CF910895EF92FF920F931F93CF93B7
:10048000DF9300D0CDB7DEB713E01A8381E0898314
:10049000BE016F5F7F4F89E390E00E94BE001A8328
:1004A0006894FF24F1F8F982BE016F5F7F4F89E302
:1004B00090E00E94BE001A836894EE24E2F8E9827C
:1004C000BE016F5F7F4F89E390E00E94BE001A83F8
:1004D00008E00983BE016F5F7F4F89E390E00E94CF
:1004E000BE001A8380E18983BE016F5F7F4F89E37D
:1004F00090E00E94BE001A8380E28983BE016F5F94
:100500007F4F89E390E00E94BE001A8380E48983D4
:10051000BE016F5F7F4F89E390E00E94BE001A83A7
:1005200080E88983BE016F5F7F4F89E390E00E947E
:10053000BE001A83E982BE016F5F7F4F86E390E0C1
:100540000E94BE001A83F982BE016F5F7F4F86E36F
:1005500090E00E94BE001A830983BE016F5F7F4F47
:1005600086E390E00E94BE002FEF89EF90E02150DB
:1005700080409040E1F700C0000082E00E94E50169
:1005800088E20E94E50186E00E94E50180E80E9481
:10059000E5018CE00E94E50181E00E94E5018FE326
:1005A0009FE10197F1F700C000000F900F90DF91DD
:1005B000CF911F910F91FF90EF90089581E00E94DD
:1005C000E5018FE39FE10197F1F700C0000080E8AB
:1005D0000E94E5010895811107C0603168F480E848
:1005E000860F0E94E5010895813031F4603120F4D6
:1005F00080EC860F0E94E5010895CF93C82F682FE5
:10060000607F89E390E00E94FB0041E062E086E3C6
:1006100090E00E94EC0040E068E086E390E00E94F9
:10062000EC0041E064E086E390E00E94EC0085E0AD
:100630008A95F1F7000040E064E086E390E00E94D4
:10064000EC008FE193E00197F1F700C0000090E12A
:10065000C99FB001112489E390E00E94FB0041E0B2
:1006600062E086E390E00E94EC0040E068E086E310
:1006700090E00E94EC0041E064E086E390E00E949C
:10068000EC0085E08A95F1F7000040E064E086E345
:1006900090E00E94EC008FE39FE10197F1F700C02A
:1006A0000000CF9108950F931F93CF93DF938C0198
:1006B000C0E0D0E021C021960F5F1F4F0E94FD02D5
:1006C000C031D10529F460E081E00E94EB0214C042
:1006D000C032D10589F42FEF89E698E1215080409E
:1006E0009040E1F700C000000E94DE0260E080E080
:1006F0000E94EB02C0E0D0E0F80180818111DBCFE5
:10070000DF91CF911F910F9108950E943B0287ECDA
:1007100090E00197F1F700C000000E94DE0280E641
:1007200090E00E94530360E081E00E94EB0287E6C4
:1007300090E00E9453030E9473010E9494010E9462
:10074000B50180938E000E94B50180938C000E94B9
:10075000B50180938B000E94B501809399000E949F
:10076000B50180938D0090918E0020918C0030E037
:10077000290F311D90918B00290F311D9091990007
:10078000290F311D90E02817390781F08EE690E09F
:100790000E9453039FEF23ED80E39150204080405F
:1007A000E1F700C000000E94DE02C5CF68E080E0F3
:1007B0000E94EB0280918E004AE06FE870E090E0CA
:1007C0000E941F048FE890E00E94530384E790E0AA
:1007D0000E94530380918C004BE06FE870E090E042
:1007E0000E941F048FE890E00E94530386E790E088
:1007F0000E94530368E081E00E94EB0280918B002D
:100800004AE06FE870E090E00E941F048FE890E0FB
:100810000E94530384E790E00E9453038091990063
:100820004AE06FE870E090E00E941F048FE890E0DB
:100830000E94530389E790E00E9453037CCFBB27BB
:100840004A3031F4992322F4BDE2909581959F4F6F
:100850000C942B04BB27FB015527AA27880F991F4F
:10086000AA1FA41710F0A41B83955051B9F7A05DDF
:10087000AA3308F0A95DA193009779F7B111B1935C
:100880001192CB010C944404DC01FC01672F71919F
:100890007723E1F7329704C07C916D937083629166
:0C08A000AE17BF07C8F30895F894FFCF0F
:1008AC0048756D20203D0054656D70203D004572EB
:0C08BC00726F72002E0020250020430007
:00000001FF
