:100000000C9434000C9448000C946F000C949600EF
:100010000C9446000C9446000C9446000C94590233
:100020000C9483020C942F020C94D7020C940103BD
:100030000C94AD020C942B030C9452030C94790392
:100040000C9446000C9446000C9446000C94050257
:100050000C944600320137013D015501430149012D
:1000600061014F0167015B0111241FBECFE5D8E09C
:10007000DEBFCDBF20E0A0E6B0E001C01D92A437F6
:10008000B207E1F70E94FF040C9458050C9400009D
:100090001F920F920FB60F9211242F933F934F93FD
:1000A0005F936F937F938F939F93AF93BF93EF93E0
:1000B000FF93E0916800F09169000995FF91EF913D
:1000C000BF91AF919F918F917F916F915F914F9170
:1000D0003F912F910F900FBE0F901F9018951F9278
:1000E0000F920FB60F9211242F933F934F935F936C
:1000F0006F937F938F939F93AF93BF93EF93FF93F0
:10010000E0916A00F0916B000995FF91EF91BF912A
:10011000AF919F918F917F916F915F914F913F919F
:100120002F910F900FBE0F901F9018951F920F9256
:100130000FB60F9211242F933F934F935F936F93BA
:100140007F938F939F93AF93BF93EF93FF93E09130
:100150006C00F0916D000995FF91EF91BF91AF9107
:100160009F918F917F916F915F914F913F912F91CF
:100170000F900FBE0F901F901895FC01DB01119698
:100180008C911197813059F48C91809591818923BC
:1001900081838C9180959281892382830895823016
:1001A00051F48C9180959181892381838C919281E6
:1001B000892B828308958C919181892B81838C91E5
:1001C00080959281892382830895413029F4FC012E
:1001D0002281622B62830895411105C06095FC0164
:1001E0002281622362830895FC0162830895FC01E9
:1001F0009093610080936000808182B9838181B98E
:100200008281813039F496B7892B86BF8FB7806899
:100210008FBF06C096B7892386BF8FB78F778FBFF2
:10022000218130E040E050E060E472E48FE090E053
:100230000E943005DA01C9014097A109B109B695BC
:10024000A7959795879580B986B7846486BF0895EA
:1002500090E08A30910508F053C0FC01E65DFF4F45
:100260000C94520506B607FE38C021E049C081B1A2
:10027000887F8830A1F121E043C081B1887F883137
:1002800081F121E03DC081B1887F883261F121E0B8
:1002900037C081B1887F803641F121E031C081B122
:1002A000887F803821F121E02BC081B1887F8034A4
:1002B00001F121E025C081B1887F8035E1F021E0A6
:1002C0001FC081B1887F883AC1F021E019C081B197
:1002D000887F883BA1F021E013C020E011C020E01E
:1002E0000FC020E00DC020E00BC020E009C020E0DE
:1002F00007C020E005C020E003C020E001C020E0EE
:10030000822F089584EA86BF80E00E942801882316
:10031000D9F381E00E94280186B78F7586BF0895C2
:1003200084E986BF0895FF920F931F93CF93DF93C5
:10033000C82F8B01D42FF22E0E948201C3B986B739
:10034000806886BF80E00E9428018823D9F382E07C
:100350000E942801C0E011C0F801EC0FF11D80815E
:1003600083B986B7806886BF80E00E942801882311
:10037000D9F384E00E942801CF5FCD1768F3F11014
:1003800002C00E949001DF91CF911F910F91FF90C9
:1003900008950F931F93CF93DF93C82F8B01D42F12
:1003A0000E948201C3B986B7806C86BF80E00E943C
:1003B00028018823D9F383E00E942801C0E01CC0F3
:1003C0002C2F30E08D2F90E001972817390719F472
:1003D00086B78F7B86BF86B7806886BF80E00E9425
:1003E00028018823D9F389E00E942801F801EC0F45
:1003F000F11D83B18083CF5FCD1710F30E94900170
:10040000DF91CF911F910F9108951F920F920FB618
:100410000F9211242F933F934F935F936F937F938A
:100420008F939F93AF93BF93EF93FF93E0916000FF
:10043000F09161000480F581E02D0995FF91EF9125
:10044000BF91AF919F918F917F916F915F914F91EC
:100450003F912F910F900FBE0F901F9018951F92F4
:100460000F920FB60F9211242F933F934F935F93E8
:100470006F937F938F939F93AF93BF93EF93FF936C
:10048000E0916200F09163000484F585E02D099508
:10049000FF91EF91BF91AF919F918F917F916F915C
:1004A0005F914F913F912F910F900FBE0F901F9032
:1004B00018951F920F920FB60F9211242F933F930E
:1004C0004F935F936F937F938F939F93AF93BF935C
:1004D000EF93FF93E0916200F09163000684F7854B
:1004E000E02D0995FF91EF91BF91AF919F918F9171
:1004F0007F916F915F914F913F912F910F900FBE20
:100500000F901F9018951F920F920FB60F92112403
:100510002F933F934F935F936F937F938F939F930B
:10052000AF93BF93EF93FF93E0916200F09163006C
:100530000088F189E02D0995FF91EF91BF91AF916E
:100540009F918F917F916F915F914F913F912F91EB
:100550000F900FBE0F901F9018951F920F920FB61D
:100560000F9211242F933F934F935F936F937F9339
:100570008F939F93AF93BF93EF93FF93E0916400AA
:10058000F09165000780F085E02D0995FF91EF91CE
:10059000BF91AF919F918F917F916F915F914F919B
:1005A0003F912F910F900FBE0F901F9018951F92A3
:1005B0000F920FB60F9211242F933F934F935F9397
:1005C0006F937F938F939F93AF93BF93EF93FF931B
:1005D000E0916600F09167000084F185E02D0995B7
:1005E000FF91EF91BF91AF919F918F917F916F910B
:1005F0005F914F913F912F910F900FBE0F901F90E1
:1006000018951F920F920FB60F9211242F933F93BC
:100610004F935F936F937F938F939F93AF93BF930A
:10062000EF93FF93E0916600F09167000680F781F9
:10063000E02D0995FF91EF91BF91AF919F918F911F
:100640007F916F915F914F913F912F910F900FBECE
:100650000F901F9018951F920F920FB60F921124B2
:100660002F933F934F935F936F937F938F939F93BA
:10067000AF93BF93EF93FF93E0917200F0917300FB
:100680000995FF91EF91BF91AF919F918F917F91CC
:100690006F915F914F913F912F910F900FBE0F90EF
:1006A0001F9018951F920F920FB60F9211242F933F
:1006B0003F934F935F936F937F938F939F93AF93EA
:1006C000BF93EF93FF93E0917000F0917100099553
:1006D000FF91EF91BF91AF919F918F917F916F911A
:1006E0005F914F913F912F910F900FBE0F901F90F0
:1006F00018951F920F920FB60F9211242F933F93CC
:100700004F935F936F937F938F939F93AF93BF9319
:10071000EF93FF93E0916E00F0916F000995FF91C8
:10072000EF91BF91AF919F918F917F916F915F9169
:100730004F913F912F910F900FBE0F901F901895E2
:10074000CF93DF9300D000D000D0CDB7DEB78EEFCF
:100750008B831E821D8280EA8A8381E08C83CE0196
:1007600001960E94F70026960FB6F894DEBF0FBEE2
:10077000CDBFDF91CF910895CF93DF93CDB7DEB793
:10078000CF5FD1090FB6F894DEBF0FBECDBFFB011E
:1007900099838A8352E009C02191A1E0B0E0AC0FB7
:1007A000BD1FA80FB91F2C935F5F852F90E0242FEA
:1007B00030E02E5F3F4F8217930774F34E5F20E0C7
:1007C000BE016F5F7F4F86EA0E949301C150DF4FE9
:1007D0000FB6F894DEBF0FBECDBFDF91CF91089565
:1007E000FF920F931F93CF93DF9300D0CDB7DEB767
:1007F0008B01F42E99838A8321E042E0BE016F5F72
:100800007F4F86EA0E9493014F2DB80187EA0E942C
:10081000C9010F900F90DF91CF911F910F91FF9021
:100820000895CF93C82F682F607F89E390E00E94DE
:10083000F40040E062E086E390E00E94E50040E0E2
:1008400068E086E390E00E94E50041E064E086E332
:1008500090E00E94E500000040E064E086E390E064
:100860000E94E50082E48A95F1F700C090E1C99FFB
:10087000B001112489E390E00E94F40040E062E0BE
:1008800086E390E00E94E50040E068E086E390E0C7
:100890000E94E50041E064E086E390E00E94E5000C
:1008A000000040E064E086E390E00E94E50083EF12
:1008B00091E00197F1F700C00000CF910895EF9209
:1008C000FF920F931F93CF93DF9300D0CDB7DEB786
:1008D00013E01A8381E08983BE016F5F7F4F89E354
:1008E00090E00E94BD001A836894FF24F1F8F98219
:1008F000BE016F5F7F4F89E390E00E94BD001A83C5
:100900006894EE24E2F8E982BE016F5F7F4F89E3CD
:1009100090E00E94BD001A8308E00983BE016F5F6A
:100920007F4F89E390E00E94BD001A8380E18983B4
:10093000BE016F5F7F4F89E390E00E94BD001A8384
:1009400080E28983BE016F5F7F4F89E390E00E9460
:10095000BD001A8380E48983BE016F5F7F4F89E306
:1009600090E00E94BD001A8380E88983BE016F5F1A
:100970007F4F89E390E00E94BD001A83E982BE01A7
:100980006F5F7F4F86E390E00E94BD001A83F9827B
:10099000BE016F5F7F4F86E390E00E94BD001A8327
:1009A0000983BE016F5F7F4F86E390E00E94BD0028
:1009B00087E893E10197F1F700C0000082E00E9410
:1009C000110488E20E94110486E00E94110480E86C
:1009D0000E9411048CE00E94110481E00E94110425
:1009E00083EF91E00197F1F700C000000F900F90A6
:1009F000DF91CF911F910F91FF90EF900895CF93CA
:100A0000DF93CDB7DEB728970FB6F894DEBF0FBEE1
:100A1000CDBF0E945F0481E0898382E08A8383E006
:100A20008B8384E08C831D821E821F8218860E9425
:100A3000A00344E0BE016F5F7F4F8FEA90E00E9409
:100A4000BC0387EA91E60197F1F700C0000044E09B
:100A5000BE016B5F7F4F8FEA90E00E94F003FFCFF3
:100A6000A1E21A2EAA1BBB1BFD010DC0AA1FBB1FB2
:100A7000EE1FFF1FA217B307E407F50720F0A21B24
:100A8000B30BE40BF50B661F771F881F991F1A9491
:100A900069F760957095809590959B01AC01BD01BB
:100AA000CF010895EE0FFF1F0590F491E02D0994FA
:040AB000F894FFCFE8
:00000001FF
