:100000000C9434000C9453000C947A000C94A100CE
:100010000C9451000C9451000C9451000C941F024C
:100020000C9449020C94F5010C949D020C94C702A7
:100030000C9473020C94F1020C9418030C943F037B
:100040000C9451000C9451000C9451000C94CB0171
:100050000C945100030108010E01260114011A013C
:100060003201200138012C0111241FBECFE5D8E058
:10007000DEBFCDBF10E0A0E6B0E0E6E6F8E002C0EB
:1000800005900D92A836B107D9F720E0A8E6B0E0B8
:1000900001C01D92AC37B207E1F70E94D7030C9460
:1000A00031040C9400001F920F920FB60F9211248E
:1000B0002F933F934F935F936F937F938F939F9370
:1000C000AF93BF93EF93FF93E0917000F0917100B5
:1000D0000995FF91EF91BF91AF919F918F917F9182
:1000E0006F915F914F913F912F910F900FBE0F90A5
:1000F0001F9018951F920F920FB60F9211242F93F5
:100100003F934F935F936F937F938F939F93AF939F
:10011000BF93EF93FF93E0917200F0917300099504
:10012000FF91EF91BF91AF919F918F917F916F91CF
:100130005F914F913F912F910F900FBE0F901F90A5
:1001400018951F920F920FB60F9211242F933F9381
:100150004F935F936F937F938F939F93AF93BF93CF
:10016000EF93FF93E0917400F09175000995FF9172
:10017000EF91BF91AF919F918F917F916F915F911F
:100180004F913F912F910F900FBE0F901F90189598
:10019000FC019093690080936800808182B983811B
:1001A00081B98281813039F496B7892B86BF8FB7A8
:1001B00080688FBF06C096B7892386BF8FB78F77B9
:1001C0008FBF218130E040E050E060E472E48FE0D6
:1001D00090E00E940904DA01C9014097A109B10920
:1001E000B695A7959795879580B986B7846486BF9D
:1001F000089590E08A30910508F053C0FC01E65D57
:10020000FF4F0C942B0406B607FE38C021E049C00E
:1002100081B1887F8830A1F121E043C081B1887F1E
:10022000883181F121E03DC081B1887F883261F160
:1002300021E037C081B1887F803641F121E031C0B3
:1002400081B1887F803821F121E02BC081B1887F86
:10025000803401F121E025C081B1887F8035E1F053
:1002600021E01FC081B1887F883AC1F021E019C028
:1002700081B1887F883BA1F021E013C020E011C04C
:1002800020E00FC020E00DC020E00BC020E009C03E
:1002900020E007C020E005C020E003C020E001C04E
:1002A00020E0822F089584EA86BF80E00E94F90052
:1002B0008823D9F381E00E94F90086B78F7586BF45
:1002C000089584E986BF0895FF920F931F93CF93FB
:1002D000DF93C82F8B01D42FF22E0E945301C3B994
:1002E00086B7806886BF80E00E94F9008823D9F332
:1002F00082E00E94F900C0E011C0F801EC0FF11D8E
:10030000808183B986B7806886BF80E00E94F9004B
:100310008823D9F384E00E94F900CF5FCD1768F3FA
:10032000F11002C00E946101DF91CF911F910F91E6
:10033000FF9008950F931F93CF93DF93C82F8B01E6
:10034000D42F0E945301C3B986B7806C86BF80E06A
:100350000E94F9008823D9F383E00E94F900C0E0ED
:1003600011C086B7806886BF80E00E94F9008823AC
:10037000D9F389E00E94F900F801EC0FF11D83B177
:100380008083CF5FCD1768F30E946101DF91CF9129
:100390001F910F9108951F920F920FB60F92112483
:1003A0002F933F934F935F936F937F938F939F937D
:1003B000AF93BF93EF93FF93E0916800F0916900D2
:1003C0000480F581E02D0995FF91EF91BF91AF91E8
:1003D0009F918F917F916F915F914F913F912F915D
:1003E0000F900FBE0F901F9018951F920F920FB68F
:1003F0000F9211242F933F934F935F936F937F93AB
:100400008F939F93AF93BF93EF93FF93E0916A0015
:10041000F0916B000484F585E02D0995FF91EF9133
:10042000BF91AF919F918F917F916F915F914F910C
:100430003F912F910F900FBE0F901F9018951F9214
:100440000F920FB60F9211242F933F934F935F9308
:100450006F937F938F939F93AF93BF93EF93FF938C
:10046000E0916A00F0916B000684F785E02D099514
:10047000FF91EF91BF91AF919F918F917F916F917C
:100480005F914F913F912F910F900FBE0F901F9052
:1004900018951F920F920FB60F9211242F933F932E
:1004A0004F935F936F937F938F939F93AF93BF937C
:1004B000EF93FF93E0916A00F0916B000088F1895F
:1004C000E02D0995FF91EF91BF91AF919F918F9191
:1004D0007F916F915F914F913F912F910F900FBE40
:1004E0000F901F9018951F920F920FB60F92112424
:1004F0002F933F934F935F936F937F938F939F932C
:10050000AF93BF93EF93FF93E0916C00F0916D0078
:100510000780F085E02D0995FF91EF91BF91AF9194
:100520009F918F917F916F915F914F913F912F910B
:100530000F900FBE0F901F9018951F920F920FB63D
:100540000F9211242F933F934F935F936F937F9359
:100550008F939F93AF93BF93EF93FF93E0916E00C0
:10056000F0916F000084F185E02D0995FF91EF91E6
:10057000BF91AF919F918F917F916F915F914F91BB
:100580003F912F910F900FBE0F901F9018951F92C3
:100590000F920FB60F9211242F933F934F935F93B7
:1005A0006F937F938F939F93AF93BF93EF93FF933B
:1005B000E0916E00F0916F000680F781E02D0995C3
:1005C000FF91EF91BF91AF919F918F917F916F912B
:1005D0005F914F913F912F910F900FBE0F901F9001
:1005E00018951F920F920FB60F9211242F933F93DD
:1005F0004F935F936F937F938F939F93AF93BF932B
:10060000EF93FF93E0917A00F0917B000995FF91C1
:10061000EF91BF91AF919F918F917F916F915F917A
:100620004F913F912F910F900FBE0F901F901895F3
:100630001F920F920FB60F9211242F933F934F9357
:100640005F936F937F938F939F93AF93BF93EF933A
:10065000FF93E0917800F09179000995FF91EF9177
:10066000BF91AF919F918F917F916F915F914F91CA
:100670003F912F910F900FBE0F901F9018951F92D2
:100680000F920FB60F9211242F933F934F935F93C6
:100690006F937F938F939F93AF93BF93EF93FF934A
:1006A000E0917600F09177000995FF91EF91BF916D
:1006B000AF919F918F917F916F915F914F913F91FA
:1006C0002F910F900FBE0F901F901895CF93DF932F
:1006D00000D000D000D0CDB7DEB78EEF8B831E8266
:1006E0001D8280EA8A8381E08C83CE0101960E947C
:1006F000C80026960FB6F894DEBF0FBECDBFDF91BF
:10070000CF910895CF93DF93CDB7DEB7CF5FD109F7
:100710000FB6F894DEBF0FBECDBFFB0199838A836D
:1007200052E009C02191A1E0B0E0AC0FBD1FA80FBD
:10073000B91F2C935F5F852F90E0242F30E02E5F50
:100740003F4F8217930774F34E5F20E0BE016F5F47
:100750007F4F86EA0E946401C150DF4F0FB6F894C4
:10076000DEBF0FBECDBFDF91CF910895FF920F93F3
:100770001F93CF93DF9300D0CDB7DEB78B01F42E5C
:1007800099838A8321E042E0BE016F5F7F4F86EA52
:100790000E9464014F2DB80187EA0E949A010F90D0
:1007A0000F90DF91CF911F910F91FF900895CF93FC
:1007B000DF93CDB7DEB72E970FB6F894DEBF0FBE2E
:1007C000CDBF87E0E0E6F0E0DE01119601900D92EA
:1007D0008A95E1F78E01085F1F4F87E0F8011192BB
:1007E0008A95E9F70E94660347E0BE016F5F7F4F7D
:1007F0008FEA90E00E94820387EA91E60197F1F781
:1008000000C0000047E0B8018FEA90E00E94B60304
:10081000FFCFA1E21A2EAA1BBB1BFD010DC0AA1F10
:10082000BB1FEE1FFF1FA217B307E407F50720F059
:10083000A21BB30BE40BF50B661F771F881F991FD4
:100840001A9469F760957095809590959B01AC011D
:10085000BD01CF010895EE0FFF1F0590F491E02D2B
:060860000994F894FFCF9B
:0808660001020304050607006E
:00000001FF
