:020000040800F2
:10000000002800202D0A00087D0A0008850100084C
:100010008B0100087D0A0008910100080000000023
:100020000000000000000000000000009701000830
:100030007D0A000800000000F9020008C90100085C
:100040007D0A00087D0A00087D0A00087D0A000874
:100050007D0A00087D0A00087D0A00087D0A000864
:100060007D0A00087D0A00087D0A00087D0A000854
:100070007D0A00087D0A00087D0A00087D0A000844
:100080007D0A00087D0A00087D0A0008DD140008CA
:1000900025150008611500089D1500087D0A000857
:1000A0007D0A00087D0A00087D0A00087D0A000814
:1000B0007D0A00087D0A00087D0A00087D0A000804
:1000C0007D0A00087D0A00087D0A00087D0A0008F4
:1000D0007D0A00087D0A00087D0A00087D0A0008E4
:1000E0007D0A00087D0A0008000000007D0A000863
:1000F0007D0A00087D0A00087D0A00087D0A0008C4
:100100007D0A00087D0A00087D0A00087D0A0008B3
:100110007D0A00087D0A00087D0A00087D0A0008A3
:100120007D0A00087D0A00087D0A00087D0A000893
:1001300010B5054C237833B9044B13B10448AFF321
:1001400000800123237010BD080000200000000083
:100150003419000808B5034B1BB103490348AFF33A
:10016000008008BD000000000C00002034190008C9
:1001700010F8012B11F8013B012A28BF9A42F7D051
:10018000D01A704780B400AFFEE780B400AFFEE73E
:1001900080B400AFFEE71EF0040F0CBFEFF3088041
:1001A000EFF3098000F094BA00BF000080B400AF04
:1001B000044B5B68034A43F08053536000BFBD4665
:1001C00080BC704700ED00E080B500AF074B1B78A6
:1001D00083F00103DAB2054B1A7000F0CFFA00F099
:1001E00025FAFFF7E3FF00BF80BD00BF2C00002011
:1001F00080B483B000AF786039607B68DB68002B27
:1002000003D07B681B69002B01D103232DE07B68A1
:100210005A687B689B689A4207D17B681A687B683A
:100220001B699A4201D101231FE07B689B683A68F1
:100230001A607B681B685A1C7B681A607B689B6825
:100240007A68D26811467A68126992000A44043AC0
:10025000934204D17B68DA687B689A6004E07B682B
:100260009B681A1D7B689A60002318460C37BD46B0
:1002700080BC704780B483B000AF786039607B6821
:10028000DB68002B03D07B681B69002B01D10323A3
:100290002CE07B685A687B689B689A4201D10223F4
:1002A00024E07B685B681A683B681A607B685B685F
:1002B00000221A607B681B685A1E7B681A607B6884
:1002C0005B687A68D26811467A68126992000A44BB
:1002D000043A934204D17B68DA687B685A6004E090
:1002E0007B685B681A1D7B685A60002318460C37D0
:1002F000BD4680BC704700006F4BD3F8A031EFF3D0
:10030000098002465A616C4BD3F8A0315A69043A0D
:100310005A61694BD3F8A0315B6922461A60664B7B
:10032000D3F8A0315A69043A5A61634BD3F8A0312B
:100330005B692A461A60604BD3F8A0315A69043AC7
:100340005A615D4BD3F8A0315B6932461A605A4B53
:10035000D3F8A0315A69043A5A61574BD3F8A03107
:100360005B693A461A60544BD3F8A0315A69043A93
:100370005A61514BD3F8A0315B6942461A604E4B2B
:10038000D3F8A0315A69043A5A614B4BD3F8A031E3
:100390005B694A461A60484BD3F8A0315A69043A5F
:1003A0005A61454BD3F8A0315B6952461A60424B03
:1003B000D3F8A0315A69043A5A613F4BD3F8A031BF
:1003C0005B695A461A603C4BD3F8A431002B09D024
:1003D000394BD3F8A431384AC2F8A031364B002249
:1003E000C3F8A421344BD3F8A0315B691B689B464A
:1003F000314BD3F8A0315A6904325A612E4BD3F8ED
:10040000A0315B691B689A462B4BD3F8A0315A691F
:1004100004325A61284BD3F8A0315B691B689946B6
:10042000254BD3F8A0315A6904325A61224BD3F8D4
:10043000A0315B691B6898461F4BD3F8A0315A69FD
:1004400004325A611C4BD3F8A0315B691B681F460C
:10045000194BD3F8A0315A6904325A61164BD3F8BC
:10046000A0315B691B681E46134BD3F8A0315A6953
:1004700004325A61104BD3F8A0315B691B681D46EA
:100480000D4BD3F8A0315A6904325A610A4BD3F8A4
:10049000A0315B691B681C46074BD3F8A0315A6931
:1004A00004325A61044BD3F8A0315B69184680F3DB
:1004B0000988704700BF00BF3000002080B485B0BD
:1004C00000AF214BD3F89C317B600023FB6030E010
:1004D0000023BB6023E01C4ABB6852F823301A7922
:1004E000BB680133184951F823301B799A4213D95C
:1004F000154ABB6852F823303B60BB680133124A8F
:1005000052F823201049BB6841F82320BB6801330F
:100510000D493A6841F82320BB680133BB607A6813
:10052000FB68D31A013BBA689A42D4D3FB68013303
:10053000FB607B68013BFA689A42C9D300BF14375D
:10054000BD4680BC704700BF3000002080B586B03B
:1005500000AF0023FB7400237B6000237B61FFF767
:10056000ADFF00BF3B1D19462E48FFF783FE034633
:10057000022BF7D14BE02C4A7B6952F82330FB6009
:100580007B690133284A52F82330BB60FB6893F83B
:100590003630002B38D0FB681A79BB681B799A4239
:1005A00008D2F9681F48FFF723FEFB68032283F88F
:1005B000362032E0FB681A79BB681B799A4208D171
:1005C000F9681848FFF714FEFB68032283F8362009
:1005D0001AE0FB681A79BB681B799A4214D97B69C7
:1005E00001331A46104BD3F89C319A4203D20323AD
:1005F000FB74FB7C11E0F9680A48FFF7F9FDFB6822
:10060000032283F8362008E07B6901337B61064BC7
:10061000D3F89C217B699A42ADD818461837BD465D
:1006200080BD00BFDC0100203000002080B500AF9D
:10063000244B1B68002B1AD1234BD3F8A03193F81D
:100640003630002B13D0204BD3F8A031012283F891
:1006500036201D4BD3F8A03119461A48FFF7C8FDC4
:10066000194BD3F8A031184AC2F8A43127E0174932
:100670001448FFF7FFFD144BD3F8A431012283F88F
:100680003620114BD3F8A0311A790F4BD3F8A4318F
:100690001B799A4213D10C4BD3F8A03193F8363022
:1006A000002B0CD0084BD3F8A03119460548FFF7B2
:1006B0009FFD054BD3F8A031032283F8362000BFFD
:1006C00080BD00BFDC01002030000020D4010020EC
:1006D00080B584B000AF78607B6818331B68023B3C
:1006E0001B78FB73FB7B032B27D801A252F823F066
:1006F00001070008010700082F0700083507000858
:10070000FFF724FF0F4B93F8A831012B14D10D4BA9
:10071000D3F8A03118330C491846FFF729FD0346DA
:10072000002B09D0FFF782FFFFF740FD04E0FFF741
:100730000DFF02E000BF00E000BF00BF1037BD4664
:1007400080BD00BF300000204C19000880B483B089
:1007500000AF0346FB71FB79012B06D0022B06D0BC
:10076000002B00D005E000DF03E001DF01E002DF45
:1007700000BF00BF0C37BD4680BC704780B582B05B
:1007800000AF00237B6031E01D4A7B6852F82330C4
:1007900093F83630002B26D1194A7B6852F8233063
:1007A00093F83830012B1ED1154A7B6852F823305C
:1007B000DA6B013ADA63124A7B6852F82330DB6B5A
:1007C000012B10D10E4A7B6852F82330002283F8A7
:1007D00038200B4A7B6852F82330022283F83620F7
:1007E0000220FFF7B3FF7B6801337B60044BD3F833
:1007F0009C217B689A42C7D800BF0837BD4680BDA0
:100800003000002080B400AF1F4B9B691E4A43F0AC
:10081000040393611C4B9B691B4A43F008039361DB
:10082000194B9B69184A43F010039361164B9B695F
:10083000154A43F001039361134BDB69124A43F0FD
:100840000103D361104BDB690F4A43F00203D3610C
:100850000D4BDB690C4A43F00403D3610A4B9B69DF
:10086000094A43F400739361074B9B69064A43F4BA
:1008700080439361044BDB69034A43F00073D36107
:1008800000BFBD4680BC70470010024080B582B0FA
:1008900000AF0523BB710223FB714FF40053BB80F3
:1008A0003B1D1946034800F08AFF00BF0837BD46CC
:1008B00080BD00BF0010014080B500AF00224FF4A2
:1008C0000051094800F0FAFF4FF47A7000F0D8F8B0
:1008D00001224FF40051044800F0F0FF4FF47A7009
:1008E00000F0CEF8EAE700BF0010014080B500AF8D
:1008F00000224FF40051084800F0E0FF642000F0AF
:10090000BFF801224FF40051034800F0D7FF6420E4
:1009100000F0B6F8ECE700BF0010014080B58EB0E3
:1009200000AFFFF76FFFFFF7B1FF00F0B5FD034623
:100930001A46344B1A70344B0522DA60324B0022CF
:100940001A72314B00225A722F4B40F2FF725A60DA
:100950000223BB610123BB830023BB770023FB770A
:10096000012387F82030012387F82330002387F8FC
:100970002430002387F82530002387F82230002315
:10098000BB62224BFB6207F11803184600F09EF889
:1009900000F082FD03461A461A4B1A700023FB60D2
:1009A0000023BB601A4B3B601A4B7B6001233B6109
:1009B00000237B613B46184600F0B8FA0123FB6038
:1009C0000123BB60144B3B60124B7B6001233B61F6
:1009D00000237B613B46184600F0A8FA00F0D6FBE6
:1009E00000F05AFD03461A46064B1A700B4A0C4992
:1009F000054800F00BFC0B490B4800F0D1FC00F05F
:100A00003DFDFEE7D8030020C8030020ED080008E4
:100A1000E8FFE0FFF81FF01FE81FE01FC4030020FD
:100A20000000002024000020DC0300200D48854643
:100A3000AFF300800C480D490D4A002302E0D45862
:100A4000C4500433C4188C42F9D30A4A0A4C002318
:100A500001E013600432A242FBD300F047FFFFF72E
:100A60005DFFFEE7002800200000002008000020B5
:100A700060190008080000200C040020FEE70000B8
:100A800080B483B000AF78600F4B41F63F729A623A
:100A90007B685A1E0C4BDA620B4B1B680A4A43F008
:100AA0000103136000BF084B1B6903F00103002B17
:100AB000F9D0054B00221A61034B00221A6000BFD7
:100AC0000C37BD4680BC704700080040B0B584B00C
:100AD00000AF78607B68002B03D10123FB73FB7BA5
:100AE00017E2984B1B68974A23F002031360954B5B
:100AF0001B68944A43F001031360934B00221A6071
:100B00007B689B88062B4AD801A252F823F000BFCD
:100B10002D0B00083B0B0008490B0008570B000881
:100B2000690B00087B0B00088D0B0008864B1B68C7
:100B3000854A43F4A023136034E0834B1B68824A48
:100B400043F4E02313602DE07F4B1B687E4A43F49F
:100B5000E013136026E07C4B1B687B4A43F4E013F0
:100B600043F0010313601DE0774B1B68764A43F4A2
:100B7000E01343F00303136014E0734B1B68724AE5
:100B800043F4E01343F0040313600BE06E4B1B6867
:100B90006D4A43F4E01343F00903136002E00123BC
:100BA000FB7300BF7B681B68032B3FD801A252F880
:100BB00023F000BFC50B0008DF0B0008F90B00088D
:100BC000130C0008604B1B685F4A43F0004313603E
:100BD0005D4B1B685C4A23F08043136029E05A4B4D
:100BE0001B68594A43F080431360574B1B68564AB1
:100BF00023F0004313601CE0534B1B68524A43F040
:100C000000431360504B1B684F4A43F0804313600E
:100C10000FE04D4B1B684C4A23F0004313604A4BD6
:100C20001B68494A23F08043136002E00123FB73F1
:100C300000BF7B689B79002B02D0012B07D00DE011
:100C4000404B1B683F4A23F04003136009E03D4BD3
:100C50001B683C4A43F04003136002E00123FB732E
:100C600000BF7B68DB79002B02D0012B07D00DE0A1
:100C7000344B1B68334A43F01003136009E0314BD7
:100C80001B68304A23F01003136002E00123FB735A
:100C900000BF7B681B7A002B02D0012B07D00DE030
:100CA000284B1B68274A23F00803136009E0254BF3
:100CB0001B68244A43F00803136002E00123FB731E
:100CC00000BF7B685B7A002B02D0012B07D00DE0C0
:100CD0001C4B1B681B4A43F00403136009E0194BCB
:100CE0001B68184A23F00403136002E00123FB731E
:100CF00000BF7B689B7A002B02D0012B0AD016E044
:100D0000124B1B68114A23F0010313607B68002219
:100D10001A610FE00D4B1B680C4A43F0010313608E
:100D20000B4B1B680A4A43F40023136002E00123C3
:100D3000FB7300BF7B68DB7A002B0BD0012B1FD02D
:100D400037E000BF006400401C64004014640040B1
:100D500000E100E0714B1B68704A23F0020313604E
:100D60006E4B1B686D4A23F0040313606B4B1B68CA
:100D70006A4A23F0080313607B6800225A611BE073
:100D8000664B1B68654A43F002031360634B1B68A4
:100D9000624A43F004031360604B1B685F4A43F0F0
:100DA000080313605E4B1B685D4A43F480131360B5
:100DB00002E00123FB7300BF7B681B7B002B02D08A
:100DC000012B16D02EE0554B1B68544A23F010031C
:100DD0001360524B1B68514A23F0200313604F4BA2
:100DE0001B684E4A23F0400313607B6800229A611F
:100DF0001BE04A4B1B68494A43F010031360474B02
:100E00001B68464A43F020031360444B1B68434A67
:100E100043F040031360424B1B68414A43F4001304
:100E2000136002E00123FB7300BF7B685B7B002B38
:100E300002D0012B22D046E0384B1B68374A23F4FE
:100E400000431360354B1B68344A23F480731360EE
:100E5000324B1B68314A23F4007313602F4B1B681D
:100E60002E4A23F4806313607B680022DA612B4BE7
:100E70001B682A4A23F40063136027E0274B1B6892
:100E8000264A43F400431360244B1B68234A43F46F
:100E900080731360214B1B68204A43F40073136076
:100EA0001E4B1B681D4A43F4806313601B4B1B6879
:100EB0001A4A43F400631360194B1B68184A43F441
:100EC0008003136002E00123FB7300BF0623BB72A3
:100ED0000123FB724FF480533B8107F1080319464D
:100EE000104800F06CFC0223BB724FF400633B819E
:100EF00007F1080319460B4800F061FC0A4A7B68B9
:100F000014461D460FCD0FC495E80F0084E80F006E
:100F1000FB7B18461037BD46B0BD00BF14640040CF
:100F200000E100E000080140EC03002080B485B03F
:100F300000AF78607B68002B03D10123FB73FB7B40
:100F4000F9E00023BB607B68DB680D2B48D801A269
:100F500052F823F08D0F0008930F0008990F000836
:100F60009F0F0008A50F0008AB0F0008B10F000885
:100F7000B70F0008BD0F0008C30F0008C90F000815
:100F8000CF0F0008D50F0008DB0F00086C4BBB60CB
:100F900029E06C4BBB6026E06B4BBB6023E06B4BE6
:100FA000BB6020E06A4BBB601DE06A4BBB601AE08F
:100FB000694BBB6017E0694BBB6014E0684BBB60DA
:100FC00011E0684BBB600EE0674BBB600BE0674B0A
:100FD000BB6008E0664BBB6005E0664BBB6002E0AF
:100FE0000123FB7300BF644B1B68634A43F001039A
:100FF0001360624B1B687A68D268012101FA02F221
:10100000D24311465D4A0B4013607B685B69002B3D
:1010100002D0012B20D033E0594B1B687A68D2688C
:10102000012101FA02F2D2431146554A0B401360E6
:101030007B681B689AB27B685B681B041A43BB68B9
:101040001A607B681B681A0C7B685B681B0C1B04AE
:101050001A43BB685A6016E0494B1B687A68D2682D
:10106000012101FA02F21146454A0B4313607B68E5
:101070001A68BB681A607B685A68BB685A6002E0ED
:101080000123FB7300BF7B681B69002B02D0012B7F
:101090000DD018E03B4B1B687A68D268012101FA39
:1010A00002F2D2431146374A0B4013600EE0354B33
:1010B0001B687A68D268012101FA02F21146314AAE
:1010C0000B43136002E00123FB7300BF7B689B6846
:1010D000002B02D0012B0DD018E02B4B1B687A6837
:1010E000D268012101FA02F2D2431146264A0B408E
:1010F00013600EE0244B1B687A68D268012101FA64
:1011000002F21146204A0B43136002E00123FB73F5
:1011100000BF194B1B68184A23F001031360174BDB
:101120001B687A68D268012101FA02F21146134A5B
:101130000B431360FB7B18461437BD4680BC7047D9
:1011400040660040486600405066004058660040D7
:101150006066004068660040706600407866004047
:1011600080660040886600409066004098660040B7
:10117000A0660040A8660040006600401C66004073
:101180000C660040046600401466004080B400AF66
:101190000B4B1B680A4A23F001031360084B1B68C2
:1011A000074A23F00203136000BF064B1B6803F0DD
:1011B0000103002BF9D100BF1846BD4680BC704723
:1011C000006400400464004080B400AF0E4B1B6814
:1011D00003F08063002B01D0002310E00A4B1B6852
:1011E00003F00063002B01D0012308E0064B1B68CD
:1011F00003F08053002B01D0022300E003231846A4
:10120000BD4680BC704700BF0864004080B588B010
:1012100000AFF860B9607A600023FB77FB68002BB1
:1012200003D10123FB77FB7FB0E00023BB750023D4
:10123000BB61FFF7C9FF0346BB757B68BA7D1A70B7
:10124000BB7D012B06D0022B07D0002B08D1514BC0
:10125000BB6108E0504BBB6105E0504BBB6102E055
:101260000123FB7700BFBB690022DA60BB69002263
:101270009A60BB6900225A60BB6900221A60FB6851
:101280005B7A002B08D0012B0DD1BB691B6843F0A2
:101290000202BB691A6009E0BB691B6823F0020205
:1012A000BB691A6002E00123FB7700BFFB681B7A71
:1012B000002B02D0012B0FD01DE0BB691B6823F06F
:1012C0000402BB691A60BB691A68FB685B685B054E
:1012D0001A43BB691A6011E0BB691B6843F0040242
:1012E000BB691A60BB691A68FB681B68DB001A439C
:1012F000BB691A6002E00123FB7700BFFB68DB6873
:10130000002B07D0BB695A68FB68DB681A43BB69CE
:101310005A6007E0BB695A68FB68DB68DB431A4028
:10132000BB695A600023FB7523E0FB7D032B0ED8BD
:10133000BB699B68FA7DB9680A4412781146FA7D48
:10134000D20001FA02F21A43BB699A600EE0BB694F
:10135000DB68FA7DB9680A4412781146FA7D043ACE
:10136000D20001FA02F21A43BB69DA60FB7D013355
:10137000FB75FB68DB68DBB2FA7D9A42D5D3BB69AB
:101380001B6843F00102BB691A60FB7F18462037D7
:10139000BD4680BD8065004090650040A06500406E
:1013A00080B485B000AF786039600023FB732F4BA9
:1013B0001B6803F00303002B24D02D4B1B687B68B4
:1013C00000221A722A4B1B685A0D7B685A60284B00
:1013D0001B687B6800225A72254B5B6803F00F0282
:1013E0007B68DA60224B9A683B681A60204A3B6847
:1013F0000433D2681A601D4B1B681C4A43F020035B
:1014000013602CE01B4B1B6803F00303002B24D05C
:10141000194B1B687B6800221A72174B1B685A0D08
:101420007B685A60144B1B687B6800225A72124B0F
:101430005B6803F00F027B68DA600F4B9A683B68C9
:101440001A600D4A3B680433D2681A60094B1B6866
:10145000084A43F02003136001E00223FB73FB7B87
:1014600018461437BD4680BC704700BF0C6400406E
:10147000B065004010640040C065004080B400AF1B
:10148000044B1B68034A43F00203136000BFBD46D0
:1014900080BC70470064004080B483B000AF0E4B46
:1014A0001B6803F00303012B09D0012B03D3022B8C
:1014B00009D000BF0AE00023FB71FB7906E001239D
:1014C000FB71FB7902E00223FB71FB7918460C37B4
:1014D000BD4680BC704700BF0064004080B500AFCF
:1014E0000E4B1B6803F00103012B10D10B4B1B6843
:1014F0000A4A43F001031360094B1B69002B02D118
:1015000000F0EEF807E0064B1B69984703E0034B39
:101510001B68024B1B6800BF80BD00BF0864004011
:10152000EC03002080B500AF0B4B1B6803F00303F6
:10153000002B0AD0094B5B69002B02D1FFF7BCF9E5
:1015400007E0064B5B69984703E0034B1B68024BBF
:101550001B6800BF80BD00BF0C640040EC0300208E
:1015600080B500AF0B4B1B6803F00303002B0AD0C0
:10157000094B9B69002B02D100F0B8F807E0064B3D
:101580009B69984703E0034B1B68024B1B6800BF35
:1015900080BD00BF10640040EC03002080B500AFA8
:1015A000384B1B6803F00103012B0AD1364BDB6972
:1015B000002B02D100F06AF861E0334BDB699847F9
:1015C0005DE0304B1B682F4B1B682E4B1B681B09C3
:1015D00003F00703013B052B50D801A252F823F07A
:1015E000F91500080F160008251600083B1600081C
:1015F0005116000867160008234BDB69002B02D147
:1016000000F04AF83BE0204BDB69984737E01E4B7F
:10161000DB69002B02D100F045F830E01A4BDB69A2
:1016200098472CE0184BDB69002B02D100F04CF8F6
:1016300025E0154BDB69984721E0134BDB69002B54
:1016400002D100F035F81AE00F4BDB69984716E03D
:101650000D4BDB69002B02D100F030F80FE00A4B94
:10166000DB6998470BE0084BDB69002B02D100F0E7
:1016700031F804E0044BDB69984700E000BF00BF8D
:1016800080BD00BF18640040EC03002080B400AFB0
:1016900000BFBD4680BC704780B400AF00BFBD46F0
:1016A00080BC704780B400AF00BFBD4680BC7047AF
:1016B00080B400AF00BFBD4680BC704780B400AFAF
:1016C00000BFBD4680BC704780B400AF00BFBD46C0
:1016D00080BC704780B400AF00BFBD4680BC70477F
:1016E00080B400AF00BFBD4680BC704780B400AF7F
:1016F00000BFBD4680BC704780B483B000AF0346D6
:10170000FB80FB88802B42D0802B11DC082B36D04D
:10171000082B06DC022B2ED0042B2ED0012B28D038
:1017200047E0202B2FD0402B2FD0102B29D040E08A
:10173000B3F5006F33D0B3F5006F09DCB3F5007F6C
:1017400029D0B3F5806F28D0B3F5807F21D030E069
:10175000B3F5005F27D0B3F5005F03DCB3F5805F1E
:101760001FD026E0B3F5804F1FD0B3F5004F1ED039
:101770001FE000231EE004231CE008231AE00C23D2
:1017800018E0102316E0142314E0182312E01C23A1
:1017900010E000230EE004230CE008230AE00C23F1
:1017A00008E0102306E0142304E0182302E01C23C1
:1017B00000E0002318460C37BD4680BC704790B54A
:1017C00085B000AF786039600023BB600023FB73F5
:1017D0003B681B88FF2B01D87B6801E07B680433E2
:1017E000BB603B681B881846FFF786FF03461A4616
:1017F0000F239340DA43BB681B681A40BB681A602A
:101800003B689B78072B0BD03B689B78062B07D057
:101810003B689B78052B03D03B689B78042B0ED14B
:101820003B689B78043B9B005AB23B68DB785BB219
:1018300013435BB2DBB203F00F03FB732CE03B6896
:101840009B78012B03D03B689B78002B07D13B682A
:101850009B789B00DBB203F00F03FB731CE03B683B
:101860009B78082B02D10423FB7315E00823FB733C
:101870003B689B78022B07D17B68DB683A6812884B
:101880001A437B68DA6007E07B68DB683A68128895
:10189000D2431A407B68DA60FC7B3B681B881846A1
:1018A000FFF72AFF034604FA03F2BB681B681A43DA
:1018B000BB681A6000BF1437BD4690BD80B483B0CA
:1018C00000AF78600B467B8013467B707B78002BE3
:1018D00003D07A887B681A6102E07A887B685A6153
:1018E00000BF0C37BD4680BC7047000070B50025B6
:1018F0000C4E0D4CA41BA410A54209D100F01AF8FF
:1019000000250A4E0A4CA41BA410A54205D170BDA7
:1019100056F8253098470135EEE756F825309847B8
:101920000135F2E75819000858190008581900083D
:101930005C190008F8B500BFF8BC08BC9E467047AB
:0C194000F8B500BFF8BC08BC9E4670471C
:0C194C0069646C655461736B000000005E
:04195800550100082D
:04195C00310100084D
:0819600001020304050607085B
:0400000508000A2DB8
:00000001FF
